:100000000C9499030C94B6030C94B6030C94B603A9
:100010000C94B6030C94B6030C94B6030C94B6037C
:100020000C94B6030C942A210C94B6030C94B603DA
:100030000C94B6030C9440210C94B6030C94B603B4
:100040000C94B6030C94B6030C94B6030C94B6034C
:100050000C94B6036624682468246B246B246B24F8
:100060006B246B246E2470247024702470248924E3
:100070008F2407634236B79BD8A71A39685618AE43
:10008000BAAB558C1D3CB7CC5763BD6DEDFD753ECD
:10009000F6177231BF000000803F08000000BE92DA
:1000A0002449123EABAAAA2ABECDCCCC4C3E0000BD
:1000B0000080BEABAAAAAA3E00000000BF0000005C
:1000C000803F0000000000084178D3BB4387D11374
:1000D0003D190E3CC3BD4282AD2B3E68EC8276BE1C
:1000E000D98FE1A93E4C80EFFFBE01C4FF7F3F00E6
:1000F0000000000000000000001E3531351E1E35D6
:1001000037351E0E1F3E1F0E081C7F1C08184A7F25
:100110004A181C4E7F4E1C0000000000000000002A
:100120000000000000000000000000384444473B8D
:100130000E51F1510E0000000000607E02333F2A94
:100140001C361C2A3E1C1C080808081C1C3E0022E9
:100150007F2200002E002E00067F017F00004A55FE
:1001600029000018181818004A5F4A0000027F0290
:100170000000207F20000008081C0800081C080858
:10018000003C202020081C081C0820383E38200293
:100190000E3E0E02000000000000002F00000003D1
:1001A000000300341C361C1600267F3200320D1E60
:1001B0002C1318262D12280000030000001C2241D9
:1001C000414141221C00000A050A000010381000BD
:1001D0000080600000000808080000002000000007
:1001E00060180601001E21211E00223F2000003160
:1001F0002926000025251A00000C0A3F08002725A3
:100200001900001E2525180001390503001A2525AF
:100210001A000629291E0000240000008064000046
:1002200000080814220014141414002214080800F2
:10023000012905023C4259555E301C121C30003E1B
:100240002A3600001C222222003E22221C003E2AC6
:100250002A00003E0A0A00001C222A3A003E080832
:100260003E00223E22000022221E00003E081422F0
:10027000003E2020203E0418043E003E04083E1CA0
:100280002222221C003E0A0A041C2222629C003EFA
:100290000A142000242A120002023E0202001E203C
:1002A000201E000E30300E0E300C300E22140814BA
:1002B00022020438040200322A2A2600007F41006C
:1002C000010618600000417F000018060106184072
:1002D0004040404000010200000034343820003F1C
:1002E00024241800182424001824243F0000182C6B
:1002F000280000043E0505005854543C003F080403
:100300003800043D00000044443D00003F08142034
:1003100000013F00003C083C083C003C0804380059
:1003200018242418007C2424181824247C00003C61
:1003300008040000282C140000041E2404001C20C3
:10034000103C000C30300C0C301C300C0024181801
:1003500024404C70300C00342C2C00000836410036
:1003600000007F0000004136080010080810080057
:100370003C223C00001CA26222001D20103D0018FF
:100380002C2A010036353922003534392001363423
:1003900038200036353A200018A46400001A2D29B0
:1003A0000200192C2900011A2C280000053C01002C
:1003B00000063D010201063C0000301D121D3030D8
:1003C0001A151A30003E2A2A013414182C28301C21
:1003D000123E2A02192526180019242419011A246C
:1003E0002418021D21123C001D22103C404D70308B
:1003F0000D1D2222221D011E20211E0058342C1A00
:10040000103C2A20005C322A261D002418182400E3
:10041000483E09000034343A2100043C020100182F
:10042000242619001C20123D003D090539013F0515
:10043000093F001D151E00000E110E0000405A203D
:10044000001E213F371E000808380021170C362DEA
:100450002117081639000074000008142A142222FB
:10046000142A1408550055005555AA55AA55FF558C
:10047000FF55FF0000FF00000808FF0000301C12BD
:100480001D30301A151932301D121C303E415D5599
:100490003E14F700FF0000FF00FF0014F404FC000E
:1004A0001417101F00001C36140002143814020820
:1004B00008F8000000000F080808080F08080808DE
:1004C000F808080000FF080808080808080808FFDE
:1004D00008080235353A213219151A31001F101754
:1004E0001400FC04F414141710171414F404F41476
:1004F00000FF00F714141414141414F700F7142256
:100500001C141C221925271D00083E2A221C003F0E
:100510002B2B00013E2A2A01013E2A2A0000043C1E
:10052000000000223E220100233F230001223E2240
:100530000108080F00000000F80808FFFFFFFFFF98
:10054000F0F0F0F0F00000E7000001223E22000F82
:100550000F0F0F0F1C2222221D003E012E101C2304
:1005600023231C1D2222221C02192526191D2323A8
:10057000231C007C20103C007F242418003E14140F
:10058000081E20201E01001F21211F011E20201EE9
:10059000404C30320D02043A050201010101010014
:1005A00000020100000808080000283C2800A0A064
:1005B000A0A0A02B1F081639067F017F00004A5516
:1005C000290000082A0800008040000000060909F0
:1005D000060001000100000008000000111F1000CB
:1005E0000015150A000019151200003C3C3C3C00A7
:1005F000000000006E616E00696E660000407A10B7
:10060000F35A00A0724E18090010A5D4E80000E8C3
:100610007648170000E40B54020000CA9A3B000021
:1006200000E1F505000080969800000040420F00B0
:100630000000A08601000000102700000000E80371
:10064000000000006400000000000A00000000003C
:100650000100000000002C76D888DC674F0823DFFB
:10066000C1DFAE59E1B1B796E5E3E453C63AE651CE
:10067000997696E8E6C28426EB898C9B62ED407CF5
:100680006FFCEFBC9C9F40F2BAA56FA5F490055A91
:100690002AF75C936B6CF9676DC11BFCE0E40D47B6
:1006A000FEF520E6B500D0ED902E030094357705D9
:1006B0000080841E080000204E0A000000C80C3391
:1006C0003333330F986E12831141EF8D2114893B20
:1006D000E65516CFFEE6DB18D1844B381BF77C1DA0
:1006E000901DA4BBE424203284725E228100C9F1F3
:1006F00024ECA1E53D274E414E494E495459494EFF
:1007000046CDCCCC3D0AD7233C17B7D13877CC2B7C
:10071000329595E6241FB14F0A000020410000C821
:100720004200401C4620BCBE4CCA1B0E5AAEC59DA2
:10073000740011241FBECFE5D8E0DEBFCDBF14E0AA
:10074000A0E6B0E0E2EDF2E602C005900D92AC3713
:10075000B107D9F718E0ACE7B4E001C01D92AC31A5
:10076000B107E1F70E946A250C9467310C940000F0
:1007700080E487B983E086B9379A369A3699FECFF6
:1007800084B195B1089597B18F71907E892B87B907
:10079000369A3699FECF84B195B108958F929F9283
:1007A000AF92BF92CF92DF92EF92FF920F93CF93CF
:1007B000DF93CDB7DEB760970FB6F894DEBF0FBEFC
:1007C000CDBF7C016B014A015901009719F480E00B
:1007D00090E05DC061157105D1F30430C4F707FFE7
:1007E00005C0809184048111F2CF17C080E1080216
:1007F000B001112462547E4F882777FD8095982F91
:1008000020E130E0AE014F5F5F4FF701099588238B
:10081000F1F28D818111E5CFDACF81E1ECE7F4E0EF
:10082000DF011D928A95E9F7F0927D04E0927C0445
:10083000D0927F04C0927E049092810480928004C2
:10084000B0928304A092820407FD1CC08D81809326
:10085000840489859A85AB85BC85809385049093B3
:100860008604A0938704B09388048D859E85AF8508
:10087000B8898093890490938A04A0938B04B093E1
:100880008C0403C08FEF809384048CE794E060961F
:100890000FB6F894DEBF0FBECDBFDF91CF910F91A1
:1008A000FF90EF90DF90CF90BF90AF909F908F9090
:1008B0000895009721F0FC01108681E0089580E002
:1008C0000895811102C0959801C0959A949875BBBE
:1008D000949A949865BB949A08959698959A94984A
:1008E00095BB949A949885BB949A969A0895CF93C1
:1008F000DF93EB01BC0180E00E946104BE0181E056
:10090000DF91CF910C9461040F931F93CF93DF93EA
:100910009698F22FE0E08F01042B152BD42FCC27D3
:10092000C82BD92B362F20E0B901682B792B86E113
:1009300090E00E947704B80187E190E00E9477047C
:10094000BE0181E290E00E94770462E270E080E004
:100950000E946104969ADF91CF911F910F910895A3
:10096000CF93DF93DC01CB01EA019D01AD010E9431
:100970008404FE01EE0FFF1FE05AFF4F808191813A
:10098000DF91CF910C946D04009729F4672B89F4C3
:1009900065E371E010C0019761F46115710519F408
:1009A00061E371E008C06130710519F463E371E03F
:1009B00002C067E371E087E090E00C9477040F9346
:1009C0001F93CF93DF93EC018B0197988FEF97E400
:1009D0000197F1F700C00000979A8FEF97E4019715
:1009E000F1F700C00000969A9598939A949A969879
:1009F0008FEF93E20197F1F700C0000060E071E033
:100A000087E090E00E94770460E070E08DE090E085
:100A10000E94770461E070E080E090E00E9477043B
:100A20008FEF97E40197F1F700C0000060E070E2FB
:100A30008EE090E00E94770461E070E08CE090E04E
:100A40000E94770463E070E08DE090E00E947704FC
:100A500060E070E084E090E00E94770463E079E079
:100A60008DE090E00E94770464E174E083E090E020
:100A70000E94770462E172E18EE090E00E947704C8
:100A80008FEF93EB0197F1F700C000006DE173E089
:100A90008DE090E00E94770463E171E081E090E0F6
:100AA0000E94770460E077E082E090E00E947704A3
:100AB00060E370E185E090E00E94770460E070E020
:100AC00086E090E00E94770461E070E48BE090E0C3
:100AD0000E94770460E070E08FE090E00E9477046D
:100AE00060E070E081E190E00E94770460E07FE9DF
:100AF00084E190E00E94770460E070E085E190E09E
:100B00000E94770460E07FE786E190E00E9477042E
:100B100060E07FE987E190E00E94770460E070E0A8
:100B200081E290E00E94770460E070E080E390E072
:100B30000E94770464E072E081E390E00E94770411
:100B400062E073E082E390E00E94770460E070E08E
:100B500083E390E00E94770464E075E084E390E032
:100B60000E94770465E074E085E390E00E947704DA
:100B700067E077E086E390E00E94770460E071E050
:100B800087E390E00E94770466E075E18AE390E0F5
:100B90000E9477046FE070E08BE390E00E9477049E
:100BA00065E070E087E090E00E94770465E270E025
:100BB00087E090E00E94770467E270E087E090E0D1
:100BC0000E947704B801CE010E94C40462E270E082
:100BD00080E00E9461048FEF93E20197F1F700C07B
:100BE0000000969ADF91CF911F910F9108950F9376
:100BF0001F93CF93DF93C82F2FE930E040E050E000
:100C00006FE770E080E090E00E94840400E010E56F
:100C1000D0E0CC0FDD1FC05ADF4F888199810E9440
:100C20006D040150110901151105B9F7DF91CF913C
:100C30001F910F910895CF92DF92EF92FF920F9341
:100C40001F93CF93DF938A01E22E893998F56C3791
:100C500088F5482F50E09A012C5F3F4F862F90E097
:100C6000BC01695F7F4F0E94840485E0E89E7001AB
:100C70001124C0E0D0E0F701EC50FF4F7F01000FDE
:100C8000111F005A1F4FF701EC0FFD1FC49058E0D1
:100C9000D52EC7FE04C0F8018081918102C08FEF7C
:100CA0009FEF0E946D04CC0CDA9499F72196C53021
:100CB000D10549F7DF91CF911F910F91FF90EF90F0
:100CC000DF90CF900895EF92FF920F931F93CF93F1
:100CD000DF9300D0CDB7DEB7982F762F8A01790148
:100CE000F70121917F01222381F02A3019F4785FE6
:100CF00090E0F6CFA801672F892F7A8399830E940D
:100D00001B069981985F7A81EBCF0F900F90DF914E
:100D1000CF911F910F91FF90EF90089597B321E02D
:100D200030E0082E01C0220F0A94EAF7922B97BBFD
:100D3000089597B321E030E001C0220F8A95EAF7C9
:100D4000822F8095892387BB88B3822B88BB089527
:100D500098B321E030E0082E01C0220F0A94EAF790
:100D6000922B98BB089598B321E030E0082E01C083
:100D7000220F0A94EAF72095292328BB0895C09AE8
:100D80000895C0980895B89A0895CF93DF9300D03E
:100D9000CDB7DEB789839A830E94C3060E94C1063D
:100DA00089819A810F900F90DF91CF910C949906D1
:100DB000CF93DF93EC010E948E060000CE010E94CB
:100DC000A8060E94C106000000000E94BF060000A5
:100DD0000000CE010E94B306000000000E94C10680
:100DE0000000000000000000000000000E94BF069C
:100DF00000000000CE010E94A80600000000DF9164
:100E0000CF910C94C1061F93CF93DF93EC010E9406
:100E10008E060000CE010E94A8060E94C1061AE0BC
:100E20000E94BF06000000000E94C10600000000F2
:100E30001150B1F7CE01DF91CF911F910C94D806DC
:100E4000CF92DF92EF92FF920F931F93CF93DF9396
:100E5000F82EE92E0E949906000001E010E00F2C08
:100E600002C0000F111F0A94E2F7C8E0D0E0D12CB5
:100E700080E8C82E0E94BF060000000026B330E0C4
:100E800020233123232B09F0DC280E94C106000017
:100E90000000C6942197209769F78F2D9E2D0E9400
:100EA0008E0600008F2D9E2D0E94B30600000E942A
:100EB000BF060000000000000E94C1060000000004
:100EC0008F2D9E2D0E9499068D2DDF91CF911F9120
:100ED0000F91FF90EF90DF90CF900895CF92DF9227
:100EE000EF92FF920F931F93CF93DF931F92CDB793
:100EF000DEB7E82E162F072F862F972F0E948E061B
:100F0000000098E0C92ED12C20E8F22E8F2D8E21E2
:100F100029F0812F902F0E94A80604C0812F902FC6
:100F20000E94B3060E94BF06000000000E94C10696
:100F300000000000F69481E0C81AD108C114D10461
:100F400029F7812F902F0E94990600000E94BF066A
:100F50000000000086B321E030E001C0220F1A95A6
:100F6000EAF7822389830E94C10689810F90DF916D
:100F7000CF911F910F91FF90EF90DF90CF90089548
:100F80000F931F93CF93DF93C82F162F072F862F12
:100F9000972F0E94D806612F702F8C2F0E946E070A
:100FA00021E030E0012E02C0220F331F0A94E2F745
:100FB00084E146B350E042235323452B69F426B322
:100FC00030E0012E02C0359527950A94E2F720FF04
:100FD0000FC08FEF9FEF20C04FEF5FE593E04150D0
:100FE00050409040E1F700C00000815011F7E7CF7A
:100FF000812F902F0E942007C82FDD27C7FDD09595
:10100000DC2FCC27812F902F0E9420079E01280FD4
:10101000311D87FD3A95C901DF91CF911F910F9145
:1010200008954F925F926F927F928F929F92AF92AC
:10103000BF92CF92DF92EF92FF920F931F93CF93C5
:10104000DF93CDB7DEB728970FB6F894DEBF0FBE9B
:10105000CDBF8C017B0183E00E94C0076C01B7010A
:1010600085E00E94C0075C01B601882777FD809566
:10107000982F0E94002B2AE037ED43E25CE30E94A8
:10108000702C20E030E040E252E40E94CF296B0156
:101090007C01B501882777FD8095982F0E94002B51
:1010A0004B015C0120E030E048EC51E4C701B6019F
:1010B0000E94CF292B013C012CEA35EC47EA58E38A
:1010C000C501B4010E94702C2AE037ED43E25CE3D5
:1010D0000E94D0299B01AC01C301B2010E94702C77
:1010E00069837A838B839C832DEB32E546E15DE354
:1010F000C501B4010E94702C25EC3EEF42E050E4A3
:101100000E94CF292B013C01A5019401C501B40126
:101110000E94702C26EF34E246ED55E30E94702CBD
:101120009B01AC01C301B2010E94CF299B01AC011C
:1011300069817A818B819C810E94D0294B015C015D
:101140000E94F22B69837A838B839C8323EC35EF97
:101150004CE851E4C701B6010E94702C2B013C0100
:1011600028EB3EE143E753E4C701B6010E94D029D2
:101170009B01AC01C301B2010E94342A2B013C0146
:1011800020E030E040E050E469817A818B819C81ED
:101190000E94CF2922E93CE54EED5EE30E94342A0D
:1011A000A30192010E94D02969837A838B839C8357
:1011B000C301B2010E94A12A6D837E838F83988729
:1011C000F801C082D182E282F38284829582A68273
:1011D000B78228EB3EE143E753E469817A818B8152
:1011E0009C810E94702C2B013C0129813A814B810A
:1011F0005C8163EC75EF8CE891E40E94CF299B0140
:10120000AC01C301B2010E94342AF80160877187E2
:101210008287938720E030E048EC52E4C501B401B6
:101220000E94342A21E835E943EC50E40E94702CF6
:101230002D813E814F8158850E94702C4B015C01AD
:1012400023E333E948E853E4C701B6010E94D029FB
:101250009B01AC01C501B4010E94342A23E333EBA6
:1012600048E553E40E94702CF801648775878687EF
:10127000978728960FB6F894DEBF0FBECDBFDF91DB
:10128000CF911F910F91FF90EF90DF90CF90BF9083
:10129000AF909F908F907F906F905F904F90089548
:1012A000FF920F931F93CF93DF938C01EB01CB0140
:1012B0000E94D806BE0187E00E946E07F82ECE017C
:1012C0000E942007F80180838F2DDF91CF911F911D
:1012D0000F91FF9008954F925F926F927F92AF921D
:1012E000BF92CF92DF92EF92FF920F931F93CF9313
:1012F000DF9300D0CDB7DEB75C018B01009709F416
:101300004AC06230710508F446C0DC0116964D9063
:101310005D906D907C9019976801E12CF12CCC0CBC
:10132000DD1CEE1CFF1CC40CD51CE61CF71CD501F3
:10133000ED91FC910190F081E02D22E030E0AE01D2
:101340004F5F5F4FC701B6010995882321F10981DD
:101350001A8101151105E9F0C80140960897D8F0E7
:10136000083FBFEF1B0710F000E010E01A8219825F
:10137000D501ED91FC910480F581E02D22E030E073
:10138000AE014F5F5F4FC701B60109950115110509
:1013900019F681E001C080E00F900F90DF91CF91AE
:1013A0001F910F91FF90EF90DF90CF90BF90AF9083
:1013B0007F906F905F904F9008952F923F924F9241
:1013C0005F926F927F928F929F92AF92BF92CF92D5
:1013D000DF92EF92FF920F931F93CF93DF93CDB7DE
:1013E000DEB72C970FB6F894DEBF0FBECDBF6C01F1
:1013F0001B015A01009709F45EC0DC01ED91FC91DC
:101400001197208131813C872B87448155815C83F2
:101410004B8316968D919D910D90BC91A02D8D833F
:101420009E83AF83B887F601E28CF38C8285938527
:10143000A485B585B695A795979587959A87898749
:10144000138E128E812C912C00E010E00AC089814D
:101450009A81892BB9F12FEFE21AF20A3FEF831A32
:10146000930A49855A854815590509F454C0F2E094
:10147000EF16F10418F129853A85E216F306F0F427
:101480002701612C712C440C551C661C771C8D8126
:101490009E81AF81B885480E591E6A1E7B1E22E0D0
:1014A00030E0AE014F5F5F4FC301B201EB85FC85B9
:1014B00009958111CCCF80E090E04FC042E0E42E4E
:1014C000F12CDECFA114B10431F4D6015B96FC926D
:1014D000EE925A9722C00115110529F4EFEFFFEFA4
:1014E000FA83E98302C01A83098322E030E0AE0167
:1014F0004F5F5F4FC301B201EB81FC810995811100
:1015000005C0B801C6010E946B09D5CFF1E0AF1A42
:10151000B1088701A0CFAB28A1F752E0251631040E
:10152000D8F01A830983B10180E090E0660F771F3D
:10153000881F991F2D813E814F815885620F731F2F
:10154000841F951F22E030E0AE014F5F5F4FEB81BB
:10155000FC8109958823A9F2C8012C960FB6F8944E
:10156000DEBF0FBECDBFDF91CF911F910F91FF90D6
:10157000EF90DF90CF90BF90AF909F908F907F9033
:101580006F905F904F903F902F90089580E190E092
:1015900008950F931F93FC01009799F06230710535
:1015A00080F09B0122503109A089B1890E94052D4C
:1015B0000289138924893589600F711F821F931F47
:1015C00003C060E070E0CB011F910F910895D90135
:1015D00012964D915C911397FC019F01281B390BCA
:1015E0002417350768F421913191232BB1F72D9100
:1015F0003C9111972F5F3F4F11963C932E93EDCF67
:1016000081E008950F931F93CF93DF93DC0189014D
:10161000E901E881F9818A819B8180969B838A8395
:101620008C91853E09F47BC0882309F478C01B9611
:101630008C911B978F3009F472C08BE2EF011992E5
:101640008A95E9F747A350A761A772A79D01CF012B
:1016500040E0E90158815032A9F0EC0158831C9612
:101660006C911C9763FF08C0E901688161546A317D
:1016700018F4505EEC0158834F5F2F5F3F4F019687
:10168000483039F78081853011F485EE80831896D3
:101690008C911897803229F1CF01840F911D2EE291
:1016A000EC012883CD01089674E0740F4F5FEC01C4
:1016B00058815032B1F09F01240F311DE901588348
:1016C0001C966C911C9764FF08C0EC016881615402
:1016D0006A3118F4505EE90158834F5F0196471351
:1016E000E6CFCF01840F911DEC0118821B968C91DF
:1016F0001B9780A35A968D919C915B9792A381A38F
:101700005C968D919D910D90BC91A02D83A394A387
:10171000A5A3B6A381E0F801848380E001C081E045
:10172000DF91CF911F910F9108957F928F929F9299
:10173000AF92BF92CF92DF92EF92FF920F931F93DF
:10174000CF93DF93CDB7DEB7A0970FB6F894DEBF87
:101750000FBECDBF5B01009709F473C06115710521
:1017600009F46FC0DC01ED91FC9104811581FB014E
:10177000C7A0D0A4E1A4F2A4DB010D900020E9F7FA
:10178000FD0131974F01861A970A782C4BE050E003
:1017900060E270E0CE0101960E94AB2E6EE270E036
:1017A000C5010E94F52E0097D9F0DC0111962C910D
:1017B0002223B1F0BC016F5F7F4FFB01019000203D
:1017C000E9F73197E61BF70BE430D8F577247A94E4
:1017D000780C7E1AAF015527CE0109960E94A22EE1
:1017E000B8E0B71570F1472D50E0B501CE01019674
:1017F0000E94A22E8981853E11F485E08983FE0135
:101800003C9685E1DF011D928A95E9F7F50180A1FB
:101810008C8781A192A19C8F8B8F83A194A1A5A17C
:10182000B6A18D8F9E8FAF8FB8A320E230E0AE01BE
:101830004F5F5F4FC701B601F801099591E0811133
:1018400001C090E0892FA0960FB6F894DEBF0FBEBE
:10185000CDBFDF91CF911F910F91FF90EF90DF905F
:10186000CF90BF90AF909F908F907F9008950F93EF
:101870001F93CF93DF9300D0CDB7DEB7FC01009765
:1018800031F16230710518F1A081B18180E090E002
:10189000660F771F881F991F068117812085318564
:1018A000600F711F821F931FED91FC9122E030E0C9
:1018B000AE014F5F5F4F0995882349F029813A8136
:1018C000C90101978F3E9F4F10F4C90102C080E00B
:1018D00090E00F900F90DF91CF911F910F9108959D
:1018E000EF92FF920F931F93CF93DF93CDB7DEB7A5
:1018F00060970FB6F894DEBF0FBECDBF8C0162308B
:101900007105D8F00E94C90AAE014F5F5F4F20E118
:10191000DA011D922A95E9F7D801ED91FC91119712
:1019200050962D913C9151970680F781E02DE12C46
:10193000F12C06EC1AE0099501C080E060960FB624
:10194000F894DEBF0FBECDBFDF91CF911F910F91F5
:10195000FF90EF9008954F925F926F927F92AF92B7
:10196000BF92CF92DF92EF92FF920F931F93CF938C
:10197000DF931F92CDB7DEB78C01009709F47EC0CC
:10198000452B09F47BC0DB01AD90BC90A114B104E0
:1019900051F4FC01C688D788E08CF18C42885388CA
:1019A0006488758806C0412C512C3201C12CD12C81
:1019B0007601C414D504E604F70409F041C0A1146B
:1019C000B10409F45BC0CD28CE28CF2841F1B50180
:1019D000C8010E94370C009709F541E050E0B501BD
:1019E000C8010E94DD09AC01009709F447C09C01C1
:1019F00022503109F801A089B1890E94052D6B019F
:101A00007C0182899389A489B589C80ED91EEA1EF2
:101A1000FB1EBA01C8010E94700C2DC05C01B5010B
:101A2000C8010E94C90A6B017C01D80150968D91B2
:101A30009C91519726013701480E591E611C711C5B
:101A4000D801ED91FC910190F081E02D21E030E092
:101A5000AE014F5F5F4FC701B6010995882371F052
:101A60008981853E41F0882331F0B0E2CB0ED11C54
:101A7000E11CF11C9ECFB601C70104C060E070E01C
:101A800080E090E00F90DF91CF911F910F91FF9038
:101A9000EF90DF90CF90BF90AF907F906F905F906E
:101AA0004F9008952F923F924F925F926F927F9244
:101AB0008F929F92AF92BF92CF92DF92EF92FF925E
:101AC0000F931F93CF93DF93CDB7DEB7A8970FB6D1
:101AD000F894DEBF0FBECDBF9B8F8A8F009709F4AD
:101AE00040C1DC0114968D919C911597892B09F4C6
:101AF00038C116968D919C911797892B09F431C1A5
:101B00008091F1049091F204892B09F02AC1E1EF50
:101B1000F4E08CE1DF011D928A95E9F7EA8DFB8DF7
:101B2000F093F204E093F10481849284A384B4845A
:101B300009E0880C991CAA1CBB1C0A95D1F7C501A9
:101B4000B401655F7F4F8F4F9F4F0190F081E02D73
:101B500029E130E0AE014F5F5F4F0995811105C06B
:101B60001092F2041092F104FCC029803A80EC81BA
:101B7000FD81FD8FEC8FFB81FE8FAE814F815885FB
:101B800058A34F8F89859A852C853D85CE88DF881F
:101B9000E88CF98CC114D104E104F10429F4009714
:101BA000F9F26C01E12CF12C21153105C9F2B0E0FC
:101BB0000E94052D69A37AA38BA39CA3970186019C
:101BC0008C8D9D8D081B190B2109310989A19AA1C2
:101BD000ABA1BCA1081B190B2A0B3B0BC101019740
:101BE0004F8D58A165E0440F551F6A95E1F7840FAA
:101BF000951FB1010E942F2D061B170B21093109DA
:101C00009E8D492E512C612C712CC901B801A30164
:101C100092010E94572D29013A01253FAFE03A0772
:101C20004105510508F49CCF253FBFEF3B07410517
:101C3000510528F486E0EA8DFB8D808705C08BE096
:101C4000AA8DBB8D18968C9388E1E3EFF4E0DF0159
:101C50001D928A95E9F7C101A0E0B0E08DA39EA393
:101C6000AFA3B8A7A7019601BC01CD010E941F2D0B
:101C70006093F3047093F4048093F5049093F60456
:101C80009101AC8DBD8D0E94052D6B017C01C80CAE
:101C9000D91CEA1CFB1CC092F704D092F804E09215
:101CA000F904F092FA04C301B2016E5F7F4F8F4FC7
:101CB0009F4FAA8DBB8D18962C91263029F422E0D7
:101CC00030E040E050E004C024E030E040E050E08C
:101CD0000E941F2D6093FB047093FC048093FD040D
:101CE0009093FE04309200052092FF04BE8DB29DB9
:101CF000C001B39D900D11249093020580930105BE
:101D000029A13AA14BA15CA16DA17EA18FA198A5AB
:101D10000E941F2D6C0D7D1D8E1D9F1D609307055C
:101D2000709308058093090590930A05EF8DF8A13B
:101D30008F0120E030E045E0000F111F221F331F0C
:101D40004A95D1F7060F171F281F391F0093030567
:101D500010930405209305053093060581EF94E068
:101D600002C080E090E0A8960FB6F894DEBF0FBEE8
:101D7000CDBFDF91CF911F910F91FF90EF90DF903A
:101D8000CF90BF90AF909F908F907F906F905F901B
:101D90004F903F902F900895009719F0FC01118209
:101DA00010820895009759F16115710541F1FB0109
:101DB00020A124FD24C02091BE043091BF04232B18
:101DC000F1F42BE2FB01A0ECB4E001900D922A9516
:101DD000E1F79093BF048093BE041092EB0410923D
:101DE000EC041092ED041092EE04FB0181A192A18B
:101DF0009093F0048093EF048EEB94E0089580E0DC
:101E000090E00895009719F0FC0111821082089566
:101E10002F923F924F925F926F927F928F929F92FA
:101E2000AF92BF92CF92DF92EF92FF920F931F93E8
:101E3000CF93DF93CDB7DEB728970FB6F894DEBF08
:101E40000FBECDBF98878F831B017A01892B19F4B0
:101E50008FEF9FEFCFC061157105D1F3411551058B
:101E6000B9F3AF81B8859D968D909D90AD90BC9053
:101E7000D09795968D919D910D90BC91A02DB50117
:101E8000A4014E0D5F1D611D711D84179507A607E6
:101E9000B70728F47C01E818F90809F4A9C0AF8154
:101EA000B885ED91FC911197808991899A838983F6
:101EB000D1960D911C91D29701151105D9F59396E4
:101EC0000D911C9194970115110561F481E090E04A
:101ED00089288A288B2811F480E090E091958195DB
:101EE000910988C081149104A104B10419F124015D
:101EF0003501A981BA819D0140E050E042165306A8
:101F000064067506B8F0421A530A640A750AB801E5
:101F1000EF81F885808191812B833C834D835E83A3
:101F20000E94370C8C012B813C814D815E81009792
:101F300029F78ECFC980DA80F1E0CF1AD108C82006
:101F4000D9205701AF81B8856D907C90B801C3014D
:101F50000E94C90A89809A808C189D08A814B90427
:101F600008F44501D301ED91FC916C0D7D1D811D9F
:101F7000911D0190F081E02D9401A1010995882324
:101F800039F1280C391CA818B908EF81F88585A506
:101F900096A5A7A5B0A9880D991DA11DB11D85A75E
:101FA00096A7A7A7B0AB8C0C9D1C89819A81881637
:101FB0009906A0F0B801808191810E94370C8C01B4
:101FC000009751F4AF81B885D2961C921E92D1979A
:101FD000C7018A199B090EC0C12CD12CEF81F8854D
:101FE00012AB01ABA114B10409F0ACCFC70102C020
:101FF00080E090E028960FB6F894DEBF0FBECDBF0C
:10200000DF91CF911F910F91FF90EF90DF90CF90D4
:10201000BF90AF909F908F907F906F905F904F9008
:102020003F902F9008952F923F924F925F926F9220
:102030007F928F929F92AF92BF92CF92DF92EF9258
:10204000FF920F931F93CF93DF9300D000D0CDB7B3
:10205000DEB79C838B836B015A834983892B19F4E8
:102060008FEF9FEF0DC161157105D1F389819A81C1
:10207000892BB1F3AB81BC819D964D915D916D91A2
:102080007C91D09795968D919D910D90BC91A02DAE
:1020900084179507A607B70718F3EB81FC818081A9
:1020A0009181DC0150962D903C90519701A912A985
:1020B0007101B1E0EB1AF108E422F52201151105D6
:1020C00009F04EC003A114A101151105A1F4452B7F
:1020D000462B472B29F641E050E060E070E00E947B
:1020E000DD098C01EB81FC8194A383A3009719F493
:1020F00080E090E0C5C0AB81BC819D968D909D90A5
:10210000AD90BC90D09781149104A104B10441F129
:102110002101612C712C84149504A604B70400F1EC
:1021200084189508A608B708B801EB81FC81808166
:1021300091810E94370C009789F481149104A104C5
:10214000B10409F08DCF41E050E0B801AB81BC8112
:102150008D919C910E94DD09009751F28C01DBCF9B
:10216000A980BA80EB81FC8160807180B801C301D5
:102170000E94C90A41018E189F08A814B90408F4E6
:102180004501D301ED91FC916E0D7F1D811D911DC7
:102190000480F581E02D9401A6010995882309F4B6
:1021A00042C0C80CD91CA818B908EB81FC8185A5D0
:1021B00096A5A7A5B0A9880D991DA11DB11D85A73C
:1021C00096A7A7A7B0AB8E0C9F1C8214930408F1AE
:1021D000B801808191810E94370C0097B9F4A11455
:1021E000B10439F4AB81BC81D2961C921E92D19776
:1021F0001AC041E050E0B801EB81FC8180819181FF
:102200000E94DD098C01009711F4ECCF8C01E12CC8
:10221000F12CAB81BC81D2961C930E93D197A11463
:10222000B10409F09FCFEB81FC8185A596A5A7A5F8
:10223000B0A9C5A0D6A0E7A0F0A4C816D906EA06A2
:10224000FB06D0F485A396A3A7A3B0A7BF016E5F3A
:102250007F4F808191810E94950B81110DC0AB81D0
:10226000BC819D96AD90BC909E97AC18BD08FD01B9
:10227000C5A6D6A6E7A6F0AA89819A818A199B09E4
:102280000F900F900F900F90DF91CF911F910F91B2
:10229000FF90EF90DF90CF90BF90AF909F908F9086
:1022A0007F906F905F904F903F902F9008952F9266
:1022B0003F924F925F926F927F928F929F92AF92D6
:1022C000BF92CF92DF92EF92FF920F931F93CF9323
:1022D000DF9300D0CDB7DEB71C016A017B01009708
:1022E00011F480E0BFC0DC0193960D911C9194978E
:1022F000ED91FC91808891880115110529F0260146
:102300003701A12CB12C13C0411551056105710590
:10231000B1F797C0B801F101808191810E94370C1B
:10232000009769F0481859086A087B088C018414E2
:102330009504A604B70470F301151105F9F4C5015D
:10234000B401640D751D861D971D615071098109C9
:102350009109A50194010E94572DA901B801D1014D
:102360008D919C910E94DD09009709F4BACF011567
:10237000110521F4F10194A383A38C01D101959659
:10238000CD92DD92ED92FC929897C114D104E104B4
:10239000F10421F494961C921E929397B1016E5F02
:1023A0007F4FF101808191810E94950B882309F470
:1023B00098CFC114D104E104F10429F4B801D1018A
:1023C0008D919C913CC084149504A604B704C8F177
:1023D000F101A080B180A114B10499F1023011057E
:1023E00080F1B801C5010E94370C4C018FEF9FEFBF
:1023F0009A838983D501ED91FC911197B80180E012
:1024000090E0660F771F881F991F16960D911D91FA
:102410002D913C911997600F711F821F931F0480AB
:10242000F581E02D22E030E0AE014F5F5F4F09956E
:10243000882339F08114910421F0B401C5010E9470
:102440006B09F10185A596A5A7A5B0A9C816D9065F
:10245000EA06FB0630F4C5A6D6A6E7A6F0AA12AA9D
:1024600011AA81E00F900F90DF91CF911F910F91F2
:10247000FF90EF90DF90CF90BF90AF909F908F90A4
:102480007F906F905F904F903F902F900895CF92E4
:10249000DF92EF92FF920F931F93CF93DF93EC01A4
:1024A0008B01009709F443C06115710509F43FC021
:1024B0008DA59EA5AFA5B8A9413099F060F0423036
:1024C000B1F5FB01C080D180E280F3808DA19EA197
:1024D000AFA1B8A50BC0FB01C080D180E280F38022
:1024E00009C0FB01C080D180E280F380C80ED91EF4
:1024F000EA1EFB1E8DA19EA1AFA1B8A58C159D055E
:10250000AE05BF0568F0CDA6DEA6EFA6F8AA1AAA0A
:1025100019AAF801C082D182E282F38281E008C068
:10252000B701A601CE010E9457118111ECCF80E0C6
:10253000DF91CF911F910F91FF90EF90DF90CF909F
:102540000895009739F16115710521F1FB0120A172
:1025500024FF20C020918D0430918E04232BD1F4D0
:102560002BE2FB01AFE8B4E001900D922A95E1F770
:1025700090938E0480938D04FB0181A192A190938E
:10258000BB048093BA041092BD041092BC048DE881
:1025900094E0089580E090E00895009719F0FC0120
:1025A000118210820895FC01009741F083A194A14B
:1025B00096A785A710AA17A681E0089580E0089540
:1025C0002F923F924F925F926F927F928F929F9243
:1025D000AF92BF92CF92DF92EF92FF920F931F9331
:1025E000CF93DF93CDB7DEB7A7970FB6F894DEBFD2
:1025F0000FBECDBF4C010097C1F061157105A9F068
:10260000DC012D903C901197F101408851889D96F6
:102610006D907C909E979F96AD90BC90D097A4149F
:10262000B50428F0C4010E94D31280E073C09E015B
:102630002F5D3F4F3FA32EA385E0D9011D928A95C0
:10264000E9F78BE2FB0111928A95E9F77AA369A376
:1026500061147104F1F5D10152964D905C9053973D
:1026600056968D919C915797481A590A32C082010B
:102670000A191B096501E12CF12C6114710469F53B
:10268000F10166897789808D918D6C0D7D1D8E1D80
:102690009F1D1CA21BA2D101ED91FC910280F38130
:1026A000E02D9E012F5D3F4F690122E0E22E2BE0DD
:1026B000F22E20E230E0AE014F5F5F4F0995882394
:1026C00009F4B3CF8BA19CA1A80EB91EA414B50424
:1026D00048F48DA1882359F213C0B301C1010E94AF
:1026E000C90AD3CFB301C1010E94370C3C01009746
:1026F00021F48DA1811104C095CFA12CB12CE9CF7B
:10270000D4019E967C926E929D97D096BC92AE928A
:102710009F978DA1A7960FB6F894DEBF0FBECDBFD1
:10272000DF91CF911F910F91FF90EF90DF90CF90AD
:10273000BF90AF909F908F907F906F905F904F90E1
:102740003F902F9008958F929F92AF92BF92CF9219
:10275000DF92EF92FF920F931F93CF93DF935C0171
:10276000EB018A01009709F46AC0209709F467C059
:102770008881882309F463C04115510509F45FC0BD
:102780008F3209F421968BE2F80111928A95E9F7CC
:1027900080E1F80180A38881811102C081E050C0EE
:1027A000B801C5010E94A1127C01009709F447C03D
:1027B0006FE270E0CE010E94B22E009741F0C82E69
:1027C000CC1A4C012FEF821A920AD12C16C0FE01AE
:1027D00001900020E9F73197EC1BFD0BCE2E4E0146
:1027E0008E0E911CF2CFF80101900020E9F731978D
:1027F000E01BF10BEC15FD0539F0B801C7010E9493
:10280000E0128111F0CF17C0A601B801CE010E94DD
:10281000CD2E892B91F7C7010E94CD12CC0DDD1D65
:102820008881882309F4BACFF80180A184FF07C00A
:10283000E401E12CF12CC7010E94CD12ACCF80E065
:10284000DF91CF911F910F91FF90EF90DF90CF908C
:10285000BF90AF909F908F900895CF92DF92EF92AC
:10286000FF920F931F93CF93DF938C016B01EA01CB
:102870000097F1F161157105D9F1FB018081882381
:10288000B9F12097A9F1BE01C8010E94E012882386
:1028900059F0BE01C6010E94BD2E892BA1F7C801C7
:1028A0000E94D31292E025C0F801E080F1808BE213
:1028B000FE0111928A95E9F74FE150E0B601CE0191
:1028C0000E94DB2EB8016D5D7F4FAE01C7010E94F3
:1028D000AB0C6FA378A789A79AA7672B682B692BE6
:1028E00039F0BE01C7010E94950B91E0811101C032
:1028F00090E0892FDF91CF911F910F91FF90EF9082
:10290000DF90CF900895EF92FF920F931F93CF9394
:10291000DF931F92CDB7DEB78C017B01009711F4D6
:1029200080E02FC061157105D9F3DB0197966D9199
:102930007D918D919C919A97611571058105910505
:1029400079F325EE2983D801ED91FC910480F5817E
:10295000E02D21E030E0AE014F5F5F4F0995882305
:10296000F9F2F70161A172A16115710541F0C80189
:102970000E946B0991E0811103C090E001C091E0D9
:10298000892F0F90DF91CF911F910F91FF90EF90C2
:102990000895EF92FF920F931F93CF93DF93CDB7DC
:1029A000DEB7AB970FB6F894DEBF0FBECDBF7C018C
:1029B0008B01CA01E114F104D9F161157105C1F16E
:1029C0000097B1F12115310521F0F901408144232F
:1029D00079F1FC0140815181E416F50649F5211594
:1029E000310509F49801AE014F5F5F4FB9010E94B4
:1029F0002D148823E9F0F80180A189A381A192A177
:102A00009BA38AA343A154A165A176A14CA35DA376
:102A10006EA37FA3BE016F5F7F4FC7010E94950B1E
:102A2000811108C0BE016F5F7F4FC7010E948314F0
:102A300080E012C0F80112A211A2B801C7010E94E1
:102A400083148823A9F38BE2FE013196D80101900B
:102A50000D928A95E1F781E0AB960FB6F894DEBF50
:102A60000FBECDBFDF91CF911F910F91FF90EF90DF
:102A700008954F925F926F927F92AF92BF92CF92E2
:102A8000DF92EF92FF920F931F93CF93DF936C012E
:102A90005B01EA01009709F48CC06115710509F426
:102AA00088C0FB018081882309F483C0209709F442
:102AB00080C0BE01C6010E94E012882351F0BE0111
:102AC000C5010E94BD2E892BA1F7C6010E94D31219
:102AD00070C0F6010081118141E050E060E070E0DB
:102AE000C8010E94DD097C01009709F462C0BC01A5
:102AF000C8010E94700C8BE2FE0111928A95E9F7E1
:102B000080E188A3F801A089B18997012250310999
:102B10000E94052D4288538864887588640D751D50
:102B2000861D971D6FA378A789A79AA73EE2732EEB
:102B30007882FAA2E9A2BE01C8010E94950B8823FF
:102B4000A1F18FA198A5A9A5BAA58096A11DB11D37
:102B50008FA398A7A9A7BAA77982F60183A194A108
:102B60009AA389A3BE01C8010E94950B8823E9F0AE
:102B70004FE150E0B501CE010E94DB2EFAA2E9A29E
:102B8000B6016D5D7F4FAE01C8010E94AB0C6FA313
:102B900078A789A79AA7672B682B692B31F0BE010C
:102BA000C8010E94950B811106C0B701C8010E949F
:102BB0006B0980E001C081E0DF91CF911F910F91FF
:102BC000FF90EF90DF90CF90BF90AF907F906F908D
:102BD0005F904F900895009791F0FC012285338516
:102BE0004485558556954795379527952250310947
:102BF00041095109A089B1890E94142D089560E00E
:102C000070E0CB0108952F923F924F925F926F92A6
:102C10007F928F929F92AF92BF92CF92DF92EF926C
:102C2000FF920F931F93CF93DF93CDB7DEB7A69795
:102C30000FB6F894DEBF0FBECDBF3C01009721F464
:102C400060E070E0CB0156C01AA219A280E290E0C9
:102C50009CA38BA3D30116962D903D904D905C9034
:102C600019971A968D909D90AD90BC901D978114E8
:102C70009104A104B104B9F1BEEF8B16BFEF9B061E
:102C8000A104B10418F49EA28DA204C0EEEFFFEFE0
:102C9000FEA3EDA3D301ED91FC910280F381E02D21
:102CA0009E012F5D3F4F690177EEE72E7AE0F72E08
:102CB0000DA11EA120E230E0AE014F5F5F4FC201C7
:102CC000B1010995882309F4BBCF0DA11EA1C8014C
:102CD000A0E0B0E0280E391E4A1E5B1E881A990A31
:102CE000AA0ABB0AC4CFA9A1BAA1F30120893189DC
:102CF0000E94052DA6960FB6F894DEBF0FBECDBF7D
:102D0000DF91CF911F910F91FF90EF90DF90CF90C7
:102D1000BF90AF909F908F907F906F905F904F90FB
:102D20003F902F9008950F931F93CF93DF93EC0163
:102D30008B01B801CE010E94E012882359F062EAAB
:102D400070E0C8010E94BD2E892B99F7CE010E9428
:102D5000D31281E0DF91CF911F910F910895AF922F
:102D6000BF92CF92DF92EF92FF920F931F93CF9378
:102D7000DF938111E2C0C091D607C03A08F0DBC0F2
:102D80006091DE077091DF078091E0079091E10785
:102D90000E94CD2AD62F6093D9076091E2077091E7
:102DA000E3078091E4079091E5070E94CD2A6093A4
:102DB000DA076091E6077091E7078091E807909144
:102DC000E9070E94CD2A6093DB0780919E00813045
:102DD00009F079C0C0E0D0E08091D60742E050E031
:102DE000BE0190E00E94B0042196C931D105A1F73F
:102DF000C9E1D0E08091D60742E050E0BE0190E00A
:102E00000E94B0048091D60790E042E050E0BE01FD
:102E100001960E94B0048091D60790E040E050E017
:102E2000BE0102960E94B004C931D10509F1219674
:102E3000C537D105F9F66091D907772767FD7095F9
:102E4000695C7F4F8091D60747E050E090E00E9498
:102E5000B0046091DA07772767FD70956A507109B1
:102E60008091D60749E050E090E00E94B00465C030
:102E70008091D60700E010E090E06C0123E0C20EE4
:102E8000D11C5C0122E0A20EB11C9601200F311F63
:102E90000F5F1F4F8091D60790E00596821793072A
:102EA00034F240E050E069E170E07501E00EF11E9F
:102EB000C7010E94B00440E050E064E770E0C70141
:102EC0000E94B004E2CF6D2F772767FD7095695C93
:102ED0007F4F44E050E08C2F90E00E94B00460915E
:102EE000DA07772767FD70956A5071098091D607D8
:102EF00046E050E090E00E94B00480914B078130A2
:102F000049F48091D60743E050E064E770E090E038
:102F10000E94B0046091D7077091D8078091D607BE
:102F200041E050E090E00E94B0048091D6078F5FAE
:102F30008093D60702C01092D60780919E00813000
:102F400009F49BC0823009F018C18091ED078F937E
:102F50008091EC078F938091EB078F938091EA0724
:102F60008F938AEA90E09F938F93CAE7D7E0DF932D
:102F7000CF930E94592F9E0145E050E065E780E520
:102F80000E9463068091E1078F938091E0078F9301
:102F90008091DF078F938091DE078F9385EB90E020
:102FA0009F938F93DF93CF930E94592F9E0144E00C
:102FB00050E060E08FE50E9463068091E5078F9303
:102FC0008091E4078F938091E3078F938091E207CC
:102FD0008F938EEB90E09F938F93DF93CF930E941C
:102FE000592F9E0146E050E068E08FE50E9463069D
:102FF0008091E9078F938091E8078F938091E7078D
:103000008F938091E6078F9388EC90E09F938F9346
:10301000DF93CF930E94592F8DB79EB780960FB63E
:10302000F8949EBF0FBE8DBF9E0145E050E060E169
:103030008FE50E9463068091D8078F938091D70710
:103040008F9384ED90E09F938F93DF93CF930E94B3
:10305000592F2AE431E042E050E060E088E40E9429
:1030600063060F900F900F900F900F900F909E019E
:1030700041E050E060E088E474C08091ED078F93F8
:103080008091EC078F938091EB078F938091EA07F3
:103090008F938AEA90E09F938F93CAE7D7E0DF93FC
:1030A000CF930E94592F9E0148E050E065E780E0F1
:1030B0000E9463068091E1078F938091E0078F93D0
:1030C0008091DF078F938091DE078F9385EB90E0EF
:1030D0009F938F93DF93CF930E94592F9E0147E0D8
:1030E00050E060E080E00E9463068091E5078F93E6
:1030F0008091E4078F938091E3078F938091E2079B
:103100008F938EEB90E09F938F93DF93CF930E94EA
:10311000592F9E0149E050E068E080E00E9463067C
:103120008091E9078F938091E8078F938091E7075B
:103130008F938091E6078F9388EC90E09F938F9315
:10314000DF93CF930E94592F8DB79EB780960FB60D
:10315000F8949EBF0FBE8DBF9E0148E050E060E135
:1031600080E0DF91CF911F910F91FF90EF90DF9062
:10317000CF90BF90AF900C946306DF91CF911F91D9
:103180000F91FF90EF90DF90CF90BF90AF90089598
:103190001ABA8AB380638ABB8BB38FEF8BBB87BBB2
:1031A00097B397BB98B3906B98BB84BB85BB81BB2F
:1031B00082BB08950F931F93CF93DF9300D01F928C
:1031C000CDB7DEB71F928F9381ED90E09F938F93E1
:1031D0008E010F5F1F4F1F930F930E94592F98016D
:1031E00040E050E068E78AE00E946306C8010E9460
:1031F00034252FEF8FE995E0215080409040E1F792
:1032000000C000000F900F900F900F900F900F9044
:103210000F900F900F90DF91CF911F910F91089514
:103220000F930E946222811103C081E00E94DA188C
:1032300000E029ED33E241E353E26CED72E28AEB08
:1032400091E20E94CE039093D5078093D407892BF7
:10325000A1F40FEF29ED33E241E353E26CED72E2AA
:103260008AEB91E20E94CE039093D5078093D40716
:10327000892B19F482E00E94DA188091D40790918A
:10328000D5070E94520D90931F0780931E07892B2C
:1032900019F483E00E94DA1847EA57E067ED70E01E
:1032A00080911E0790911F070E94A31367EA77E0A1
:1032B00080911E0790911F070E94A1129093DD0735
:1032C0008093DC07892B21F484E00F910C94DA18A9
:1032D0000F910895EF92FF920F931F93CF93DF9377
:1032E000CDB7DEB7AB970FB6F894DEBF0FBECDBF3C
:1032F00000911E0710911F07BE016F5F7F4F8091E5
:10330000DC079091DD070E949316882341F0BE01EF
:103310006F5F7F4FC8010E94D20E8C0102C000E097
:1033200010E01093D3070093D20701151105A1F502
:1033300085E00E94DA184FEE57E062EA70E0809173
:10334000DC079091DD070E942D14811104C086E0F6
:103350000E94DA1802C00E942F24E0901E07F0900D
:103360001F07BE016F5F7F4F8091DC079091DD07E3
:103370000E949316882339F0BE016F5F7F4FC7010B
:103380000E94D20E8C011093D3070093D207012B19
:1033900019F487E00E94DA188091D2079091D30740
:1033A000009709F43FC019821A821B821C8242E0F6
:1033B000BE016F5F7F4F0E94471281110AC088E0F3
:1033C0000E94DA188091D2079091D3070E94020FD1
:1033D00029C089819A81AB81BC81892B8A2B8B2B57
:1033E000F9F406E710E0F80101900020E9F7AF01D9
:1033F0004150510946575040B8018091D2079091F1
:10340000D3070E941310F80101900020E9F73197CB
:10341000E657F0408E179F0719F089E00E94DA18EE
:103420000E942F24AB960FB6F894DEBF0FBECDBF1F
:10343000DF91CF911F910F91FF90EF900895FF9230
:103440000F931F93CF93DF93F090E9070091E80764
:103450001091E707D091E607C091ED07B091EC0716
:10346000A091EB07F091EA07E091E5077091E4077E
:103470006091E3075091E2074091E1073091E00746
:103480002091DF079091DE07813019F5FF920F93AD
:103490001F93DF93CF93BF93AF93FF93EF937F93EC
:1034A0006F935F934F933F932F939F9389ED90E09A
:1034B0009F938F938AE797E09F938F930E94592F52
:1034C0008DB79EB744960FB6F8949EBF0FBE8DBFC2
:1034D0002CC080914B071F928F938091D8078F93B8
:1034E0008091D7078F93FF920F931F93DF93CF9312
:1034F000BF93AF93FF93EF937F936F935F934F933C
:103500003F932F939F9386EF90E09F938F938AE74B
:1035100097E09F938F930E94592FEDB7FEB778964F
:103520000FB6F894FEBF0FBEEDBFCAE7D7E0FE01AD
:1035300001900020E9F7AF01415051094A57574027
:10354000BE018091D2079091D3070E941310FE0113
:1035500001900020E9F73197EA57F7408E179F074F
:1035600019F08AE00E94DA18DF91CF911F910F9134
:10357000FF900C942F24EF92FF920F931F93CF9301
:10358000DF93C3E0D0E000E010E083E0E82EF12C10
:1035900087E00E94C303800F911FB7010E94432D53
:1035A0008B0121972097A1F7095B110981E0053173
:1035B000110508F480E0DF91CF911F910F91FF90EA
:1035C000EF9008950E942F248091D2079091D30705
:1035D0000E94020F80911E0790911F070E94CC0E3F
:1035E0008091D4079091D5070C94590420E030E0E5
:1035F00090E02817390764F44FEF5FE36BE0415028
:1036000050406040E1F700C000002F5F3F4FF1CF16
:103610000895FF920F931F93CF93DF93F82EC82F37
:10362000D0E0CE010E940307BE018EED97E00E941C
:1036300011084091EA075091EB076091EC077091F7
:10364000ED070091DE071091DF072091E007309130
:10365000E10781E0F8122CC04093370750933807F8
:103660006093390770933A078091E2079091E307DE
:10367000A091E407B091E50780933F07909340073E
:10368000A0934107B0934207009343071093440768
:10369000209345073093460786E00E94C3036AE003
:1036A00070E00E942F2D7093D8076093D70710C049
:1036B00000934707109348072093490730934A0720
:1036C00040933B0750933C0760933D0770933E0740
:1036D000BE018CE497E00E9450098823B1F082E09B
:1036E0000E94F70529E131E040E050E060E487E026
:1036F0000E9463068AE00E94F61A80E0DF91CF9173
:103700001F910F91FF900C94F705DF91CF911F91BE
:103710000F91FF9008954F925F926F927F92AF92B8
:10372000BF92CF92DF92EF92FF920F931F93CF93AE
:10373000DF93CDB7DEB728970FB6F894DEBF0FBE84
:10374000CDBF0E94CF2920912007309121074091C1
:103750002207509123070E94B12B87FD71C08091F1
:10376000240790912507A0912607B0912707898308
:103770009A83AB83BC839C01AD01C801B7010E9451
:10378000B12B18160CF05CC0809128079091290786
:10379000A0912A07B0912B078D839E83AF83B887B2
:1037A0009C01AD01C601B5010E94B12B18160CF0A9
:1037B00047C0298D3A8D4B8D5C8DC601B5010E94A5
:1037C000B12B87FD3DC080919D00882341F0813061
:1037D000D1F5C39880934B0710929D0034C020917F
:1037E0002C0730912D0740912E0750912F076D81A6
:1037F0007E818F8198850E94D0299B01AC01C601F2
:10380000B5010E94B12B1816F4F4209130073091C5
:103810003107409132075091330769817A818B815A
:103820009C810E94D0299B01AC01C801B7010E9474
:10383000B12B181644F4C39881E080934B0703C062
:10384000C39A10924B0728960FB6F894DEBF0FBEAE
:10385000CDBFDF91CF911F910F91FF90EF90DF903F
:10386000CF90BF90AF907F906F905F904F900895F2
:1038700080E090E0A0ECBFE38093200790932107C5
:10388000A0932207B093230780E090E0A5EAB2E47A
:103890008093240790932507A0932607B0932707CA
:1038A00080E090E0A0E2B1E480932807909329079C
:1038B000A0932A07B0932B078AE999E9A9E9BEE307
:1038C00080932C0790932D07A0932E07B0932F077A
:1038D00080E090E0A0E8BFE3809330079093310749
:1038E000A0933207B093330784E190E090933507BB
:1038F0008093340708958EB584608EBD89B7846047
:1039000089BF0895CF92DF92EF92FF92CF93DF931A
:10391000CDB7DEB764970FB6F894DEBF0FBECDBF4C
:103920006B017C010E942F2428E231E041E050E04D
:1039300065E782E00E94630686E790E00E943425F6
:103940008091D2079091D307009721F48BE00E94D9
:10395000DA18B7C0198A1A8A1B8A1C8A41E0BE018C
:103960006F5E7F4F0E944712811103C08CE00E945E
:10397000DA1889899A89AB89BC89C114D104E10418
:10398000F10441F00197A109B1098D879E87AF87A6
:10399000B88B04C01D861E861F86188A40E0BE01B3
:1039A000635F7F4F8091D2079091D3070E944712A7
:1039B000811103C08FE00E94DA18C114D104E10420
:1039C000F10409F45AC02FEFC21AD20AE20AF20A2D
:1039D00041E050E0BE016F5F7F4F8091D207909130
:1039E000D3070E94080F2091D2073091D3074D854D
:1039F0005E856F8578891816190614F5C114D104EF
:103A0000E104F104E9F089818A3029F481E0C81ADF
:103A1000D108E108F10841505109610971094D8748
:103A20005E876F87788B40E0BE01635F7F4FC9017F
:103A30000E9447128111CCCF8EE00E94DA18C8CFC5
:103A40004F5F5F4F6F4F7F4F49875A876B877C87E8
:103A500040E0BE01675F7F4FC9010E94471281119C
:103A60000CC08DE00E94DA1808C0F70181917F0137
:103A70000E943025EC14FD04C1F748E050E0BE017F
:103A80006F5F7F4F8091D2079091D3070E94080FFC
:103A90001816190644F49E012F5F3F4F7901690102
:103AA000C80ED91EE2CF88E391E00E94342540E0A1
:103AB000BE016F5E7F4F8091D2079091D3070E9425
:103AC00047122EE331E041E050E065E782E00E94DA
:103AD000630664960FB6F894DEBF0FBECDBFDF91CC
:103AE000CF91FF90EF90DF90CF9008950F931F93A9
:103AF000CF93DF9300D000D0CDB7DEB78AE390E05C
:103B00009A838983BE016F5F7F4F8AE797E00E94A7
:103B10009D2EBE016F5F7F4F80E090E00E949D2E42
:103B20000E94B62D8C011F938F937F936F932EE489
:103B300031E03F932F932AE737E03F932F936B8336
:103B40007C830E94592F0FB6F894DEBF0FBECDBF05
:103B50006B817C81802F912F0F900F900F900F9091
:103B6000DF91CF911F910F9108950F931F93CF93E2
:103B7000DF9344E050E065E571E08AE797E00E945A
:103B8000CD2E892B19F48AE591E08CC24AE050E0F1
:103B900060E671E08AE797E00E94CD2E892B69F4F8
:103BA0008BE691E00E9434258BB390E289278BBB92
:103BB000DF91CF911F910F91089549E050E06BE79D
:103BC00071E08AE797E00E94CD2E892B71F50E9463
:103BD000761D0E94CD2ACB01AA2797FDA095BA2F6A
:103BE00080930D0590930E05A0930F05B0931005DB
:103BF00085E891E00E94342586E991E00E94342511
:103C00008AE797E00E9434258AE00E94302560917F
:103C10000D0570910E0580910F0590911005DF91B3
:103C2000CF911F910F910C94821C4AE050E06EE9F5
:103C300071E08AE797E00E94CD2E892B09F0BCC085
:103C4000809123078F93809122078F938091210782
:103C50008F93809120078F930EE411E01F930F93B1
:103C6000CAE7D7E0DF93CF930E94592F89EA91E00A
:103C70000E943425CE010E9434258AE00E9430251E
:103C8000809127078F93809126078F938091250736
:103C90008F93809124078F931F930F93DF93CF937C
:103CA0000E94592F80ED91E00E943425CE010E94A0
:103CB00034258AE00E94302580912B078F938091D4
:103CC0002A078F93809129078F93809128078F93DC
:103CD0001F930F93DF93CF930E94592F83EF91E0AF
:103CE0000E943425CE010E9434258AE00E943025AE
:103CF00080912F078F9380912E078F9380912D07AE
:103D00008F9380912C078F931F930F93DF93CF9303
:103D10000E94592F8DB79EB780960FB6F8949EBF1C
:103D20000FBE8DBF80E192E00E943425CE010E943B
:103D300034258AE00E943025809133078F9380914B
:103D400032078F93809131078F93809130078F9343
:103D50001F930F93DF93CF930E94592F89E192E035
:103D60000E943425CE010E9434258AE00E9430252D
:103D700020913407309135074EE1429FC001439FA7
:103D8000900D11249F938F9384ED90E09F938F93D8
:103D9000DF93CF930E94592F83E292E00E94342553
:103DA000CE010E9434258DB79EB70E960FB6F894BB
:103DB0009EBF0FBE8DBF1CC04BE050E062E372E0BF
:103DC0008AE797E00E94CD2E892BC9F40E94761DC8
:103DD0006093200770932107809322079093230715
:103DE0008EE392E00E9434258AE797E00E94342512
:103DF0008AE0DF91CF911F910F910C9430254AE01A
:103E000050E06DE472E08AE797E00E94CD2E892BA6
:103E100069F40E94761D60932407709325078093B0
:103E200026079093270788E592E0DCCF49E050E031
:103E300067E672E08AE797E00E94CD2E892B69F44D
:103E40000E94761D609328077093290780932A07A4
:103E500090932B0781E792E0C5CF4BE050E06FE7EE
:103E600072E08AE797E00E94CD2E892B69F40E94C8
:103E7000761D60932C0770932D0780932E079093E7
:103E80002F078BE892E0AECF4CE050E06BE972E098
:103E90008AE797E00E94CD2E892B69F40E94761D57
:103EA0006093300770933107809332079093330704
:103EB00088EA92E097CF4AE050E069EB72E08AE747
:103EC00097E00E94CD2E892B09F04AC00E94761DF2
:103ED0000E94CD2A882777FD8095982F0E94002B7D
:103EE00020E030E040E05FE30E94D0290E94D22A27
:103EF000CB016EE170E00E942F2D6115710529F054
:103F0000709335076093340706C081E090E090938A
:103F100035078093340720913407309135074EE1FF
:103F2000429FC001439F900D11249F938F9384ED76
:103F300090E09F938F938AE797E09F938F930E94DF
:103F4000592F84EC92E00E9434258AE797E00E9482
:103F500034250F900F900F900F900F900F9048CF37
:103F60004DE050E06AED72E08AE797E00E94CD2EC6
:103F7000892B81F50E94761D0E94CD2A882777FD26
:103F80008095982F0E94002B20E030E040E05FE316
:103F90000E94D0290E94CD2A6130710571F481E020
:103FA0008093A0006091A0008091160570E090E0E1
:103FB0000E94DF0488EE92E019CF1092A000609179
:103FC000A0008091160570E090E00E94DF048AEF67
:103FD00092E00CCF4EE050E06DE073E08AE797E0AE
:103FE0000E94CD2E892B11F50E94761D0E94CD2AAC
:103FF000882777FD8095982F0E94002B20E030E0E5
:1040000040E05FE30E94D0290E94CD2A6130710513
:1040100039F481E080939F00DC9A8CE193E0E6CE56
:1040200010929F00DC9888E393E0E0CE4DE050E0F2
:1040300065E573E08AE797E00E94CD2E892B81F534
:104040000E94761D0E94CD2A882777FD8095982FA3
:104050000E94002B20E030E040E05FE30E94D02986
:104060000E94CD2A6130710571F481E080931605BC
:104070006091A0008091160570E090E00E94DF043E
:1040800083E693E0B3CE109216056091A000809174
:10409000160570E090E00E94DF0485E793E0A6CE6D
:1040A00085E893E0DF91CF911F910F910C94342517
:1040B000EF92FF920F931F93CF93DF93C3E0D0E073
:1040C00000E010E033E0E32EF12C87E00E94C30310
:1040D000800F911FB7010E94432D8B0121972097DC
:1040E000A1F70B59110981E00531110508F080E0B5
:1040F000DF91CF911F910F91FF90EF900895EF9274
:10410000FF920F931F93CF93DF93C3E0D0E000E0C3
:1041100010E043E0E42EF12C87E00E94C303800FFF
:10412000911FB7010E94432D8B0121972097A1F782
:104130000857110981E00F31110508F080E0DF9187
:10414000CF911F910F91FF90EF900895EF92FF9202
:104150000F931F93CF93DF93C3E0D0E000E010E014
:1041600053E0E52EF12C87E00E94C303800F911FDE
:10417000B7010E94432D8B0121972097A1F70F557E
:10418000110981E00531110508F080E0DF91CF9140
:104190001F910F91FF90EF9008951F93CF93DF939E
:1041A000C62FD42F122F8130D9F40E94BB1A81114F
:1041B00017C02EE234E040E050E064E50E94630660
:1041C00023E434E040E050E065E484E10E946306CB
:1041D00023E534E040E050E06BE38CE00E946306AE
:1041E0000E947F20813099F4C11108C061E070E025
:1041F0008D2F90E00E94DF04C1E009C0C13039F486
:1042000060E070E08D2F90E00E94DF04C0E00E942B
:104210005820813079F4D11105C06C2F70E081E015
:1042200090E006C0D13031F46C2F70E080E090E077
:104230000E94DF040E94A620813041F4112311F076
:10424000113021F48BB390E189278BBBDF91CF91A3
:104250001F9108951F920F920FB60F9211248F9302
:10426000F894809112058F5F8093120581E080930E
:10427000140578948F910F900FBE0F901F90189592
:104280001F920F920FB60F9211242F933F934F93CB
:104290005F936F937F938F939F93AF93BF93EF93AE
:1042A000FF93F8946DE270E08DE497E00E9444255E
:1042B00081E0809313057894FF91EF91BF91AF91C6
:1042C0009F918F917F916F915F914F913F912F912E
:1042D0000F900FBE0F901F9018958FB9779BFECF50
:1042E000779808958FEF8FB9779BFECF77988FB12E
:1042F00008951F93CF93DF9300D000D0CDB7DEB7E2
:10430000182F4C835B836A8379830E947221812FEB
:1043100080640E946D217981872F0E946D216A81BE
:10432000862F0E946D215B81852F0E946D214C811B
:10433000842F0E946D21112321F0183039F487E871
:1043400001C085E90E946D211AE004C08FEFFACF09
:10435000115021F00E9472218F3FD1F30F900F90E6
:104360000F900F90DF91CF911F91089581E00895F4
:1043700080E008952F923F924F925F926F927F92CA
:104380008F929F92AF92BF92CF92DF92EF92FF9265
:104390000F931F93CF93DF9300D000D0CDB7DEB73C
:1043A0004B015C018A017901212C82E0382EE11455
:1043B000F10409F46FC0640181E0D82224013501C1
:1043C0004C185D0861087108F101EC19FD09FC83C6
:1043D000EB83EE16FF0610F4FC82EB828091180549
:1043E00090911905A0911A05B0911B054816590620
:1043F0006A067B06D1F1C498B301A20181E10E9453
:104400007921882319F0C49A80E045C00E94722166
:104410008E3FE1F72CE135E029833A830E94722137
:1044200029813A81F90181939F01F7E02C313F07FF
:1044300099F7409218055092190560921A057092EA
:104440001B05B601645E7A4F4B815C81C8010E94F6
:10445000A22E8B819C81080F191F0E9472210E943D
:104460007221C49A0E9472210CC0B601645E7A4F18
:104470004B815C81C8010E94A22EEB81FC810E0F52
:104480001F1F8B819C81E81AF90A880E991EA11CB6
:10449000B11C8DCF81E00F900F900F900F90DF91A6
:1044A000CF911F910F91FF90EF90DF90CF90BF9031
:1044B000AF909F908F907F906F905F904F903F90C4
:1044C0002F9008951F93CF93DF93BD9ABF9ABC9A04
:1044D000BE98C49A83E58DB97098109217051AE0BA
:1044E0000E9472211150E1F7C498C0E0D2E040E090
:1044F00050E0BA0180E00E947921813021F02197BB
:104500002097A9F72CC040E050E0BA0187E30E9451
:10451000792140E050E0BA0189E20E94792182FDD0
:1045200005C080911705816080931705C0E0D0E831
:1045300080911705837040E050E0BA0141F087E3B5
:104540000E94792140E050E0BA0189E201C081E097
:104550000E94792180FF05C02197209749F7C49ACE
:1045600026C040E052E060E070E080E10E947921E6
:10457000C49A81111BC08DB18C7F8DB9709A8FEF59
:104580009FEFDC018093180590931905A0931A05FD
:10459000B0931B0520E032E04CE155E060E070E0B4
:1045A000CB010E94BA2111E0811101C010E0812FDE
:1045B000DF91CF911F9108952F923F924F925F927A
:1045C0006F927F928F929F92AF92BF92CF92DF9223
:1045D000EF92FF920F931F93CF93DF932B013C0138
:1045E0005A01E901470116014115510511F480E016
:1045F00025C02097E1F302171307C8F3E114F10473
:10460000B1F36901E12CF12C9E01A501C301B201B6
:104610000E94BA21882359F39101B301A201C50177
:10462000F4010995882349F04C0C5D1C6E1C7F1C1D
:104630000C1B1D0B0C171D0738F781E0DF91CF9184
:104640001F910F91FF90EF90DF90CF90BF90AF90B0
:104650009F908F907F906F905F904F903F902F90A2
:1046600008952F923F924F925F926F927F928F9216
:104670009F92AF92BF92CF92DF92EF92FF920F93F1
:104680001F93CF93DF936B017C015A018901212C89
:1046900022E0322E0115110509F475C0460181E0B2
:1046A0009822260137014818590861087108E1016C
:1046B000C819D9090C171D0708F4E80180911805DD
:1046C00090911905A0911A05B0911B05481659063D
:1046D0006A067B06D9F08114910469F4C115E2E001
:1046E000DE0749F4409218055092190560921A05A8
:1046F00070921B050BC020E032E04CE155E0C30195
:10470000B2010E94BA218111EDCF3FC0FCE1AF168A
:10471000F5E0BF0639F0AE01B501C401845E9A4FE1
:104720000E94A22EC498B301A20188E10E947921BF
:10473000882311F0C49A29C08EEF0E946D219CE15C
:10474000892E95E0992EF40181914F010E946D21EF
:10475000FCE18F16F7E09F06B1F78FEF0E946D2105
:104760008FEF0E946D210E9472218F3FE1F70E941E
:104770007221C49AAC0EBD1ECC0EDD1EE11CF11CD4
:104780000C1B1D0B87CF81E001C080E0DF91CF9132
:104790001F910F91FF90EF90DF90CF90BF90AF905F
:1047A0009F908F907F906F905F904F903F902F9051
:1047B00008955F926F927F928F929F92AF92BF9275
:1047C000CF92DF92EF92FF920F931F93CF93DF93DD
:1047D0004B015C016A01E90137014115510511F4F2
:1047E00080E02DC001151105D9F35524539420976D
:1047F000E9F0512C1BC02097E1F09301B501A40111
:10480000C601F80109957C01009799F0552099F0AF
:104810009701A601C501B4010E943123882301F349
:104820008E0C9F1CA11CB11CCE19DF09552019F359
:10483000E4CF81E004C0C817D90750F7D1CFDF918A
:10484000CF911F910F91FF90EF90DF90CF90BF908D
:10485000AF909F908F907F906F905F90089581E0D0
:1048600008959F92AF92BF92CF92DF92EF92FF9204
:104870000F931F93CF93DF93EC01009709F4DAC0F5
:1048800089E1FE0111928A95E9F7C49840E050E071
:10489000BA018AE00E94792181115DC00E947221D3
:1048A0008E3FE1F79C2E0C2F1D2F70E6A72EB12C0A
:1048B0000E947221282F402F491950E04F30510596
:1048C000B8F5FA01E65DFF4F0C94B02D888330C037
:1048D000F80180832DC0F80181832AC08A8728C00F
:1048E000C82ED12CE12CF12C0A2C04C0CC0CDD1CE0
:1048F000EE1CFF1C0A94D2F74B855C856D857E8586
:104900004C295D296E297F294B875C876D877E87BF
:104910000FC0C82EC29460EFC622CF8609C0982F60
:1049200092959F708F85892B8F87822F8F70888BB0
:104930000F5F1F4FF8E0AF1AB10820EDA2162FEF5E
:10494000B20609F0B5CF40E050E0BA0189E00E941C
:104950007921882311F0C49A6DC00E9472218E3F84
:10496000E1F710E0C12CD12C760100E0A12CBB2492
:10497000B3940E9472211E3071F486FDBD8A85FDBC
:10498000BE8A84FDBF8A8C7090E095958795959539
:104990008795888F48C0173079F178F4153049F140
:1049A000163009F040C08370C82ED12CE12CF12CB8
:1049B000FE2CED2CDC2CCC2436C0193089F128F1EA
:1049C0001A3089F5881F8827881F082B8A2D90E0C8
:1049D000800F911D0296A701960104C0220F331F7C
:1049E000441F551F8A95D2F7298B3A8B4B8B5C8BD2
:1049F0001AC08F70A82E17C0C82A32E0CC0CDD1C5C
:104A0000EE1CFF1C3A95D1F70EC0829586958695CF
:104A10008370C82A3FEFC31AD30AE30AF30A03C01C
:104A2000082F0370000F1F5F123109F0A2CFC49A44
:104A300081E001C080E0DF91CF911F910F91FF9045
:104A4000EF90DF90CF90BF90AF909F9008958AB184
:104A500088698AB980B5866880BD10BC19B8089588
:104A60005D9BFECF8CB90895CF93DF93EC018991C4
:104A7000882319F00E943025FACFDF91CF91089555
:104A80005F9BFECF8CB10895EF92FF920F931F931F
:104A9000CF93DF937C018B010E944025282F30E0CB
:104AA000E701015011092A30310541F41882DF91E4
:104AB000CF911F910F91FF90EF900895CE018E1925
:104AC0009F098017910794F729930E944025282F6A
:104AD00030E0E9CF0E94C8180E9427250E94B80341
:104AE00081E090E00E94C50682E090E00E94C50649
:104AF00078940E947B1C6091A0008091160570E064
:104B000090E00E94DF0482E00E94F7050E941019E5
:104B100082EA90E00E946A190E94381C1092D6071F
:104B2000C1E08091A100811163C00E94E21A82E07D
:104B30000E94F70525E634E040E050E060E484E1BF
:104B40000E94630685E00E94F61AEBCFA09043070F
:104B5000B0904407C0904507D0904607E0903F07CB
:104B6000F0904007009141071091420720913B07C8
:104B700030913C0740913D0750913E0760913707C7
:104B8000709138078091390790913A07E0914A0770
:104B9000EF93E0914907EF93E0914807EF93E0919D
:104BA0004707EF930E948B1B109211050F900F90F7
:104BB0000F900F9080911405813061F420919F0037
:104BC000409116056091A0008091A1000E94CD2027
:104BD0001092140580911305813051F46DE477E053
:104BE0008AE797E00E94C62E0E94B51D1092130519
:104BF0008091A100882309F494CF8091120582301E
:104C000041F425E734E04AE050E068E088E40E949F
:104C1000630680911205853029F528E734E04AE0E3
:104C200050E068E088E40E946306C0939E00809193
:104C30009E00833080F40E94091BC093150580916B
:104C400015050E94AF161092150580919E008F5F8A
:104C500080939E00ECCF10921205809111058F5F1A
:104C6000809311052091110530E0809134079091D7
:104C700035072817390709F09DCFC0939E00809112
:104C80009E00833008F062CF0E94091B80911505B9
:104C90000E94AF1680919E000E941F1A80919E0074
:104CA0008F5F80939E00EBCFA3E1B0E0EAE5F6E2F0
:104CB0000C94792D7C011B016A01FC01178216827C
:104CC000838181FF66C3BE016F5F7F4F4B01F70198
:104CD0009381F10193FD859193FF81911F018823B9
:104CE00009F453C3853239F493FD859193FF819183
:104CF0001F01853239F4B70190E00E94272F560139
:104D00006501E5CF10E0512C20E02032A0F48B3279
:104D100069F030F4803259F0833269F420612CC09C
:104D20008D3239F0803339F4216026C0226024604E
:104D300023C0286021C027FD27C030ED380F3A304E
:104D400078F426FF06C0FAE01F9F300D1124132FC0
:104D500013C06AE0569E300D1124532E20620CC001
:104D60008E3221F426FD11C3206406C08C3611F466
:104D7000206802C0883641F4F10193FD859193FFCC
:104D800081911F018111C1CF9BEB980F933018F4D3
:104D90002061805E06C09BE9980F933008F0AAC19D
:104DA0002F7E26FF16E02F73722E853621F4F22F08
:104DB000F0647F2E08C0863621F4622F6068762E5C
:104DC00002C01111115077FE07C01C3348F444246F
:104DD0004394410E27E00BC0183030F4212F06C059
:104DE00027E04CE3442E03C027E017E0412C560196
:104DF00074E0A70EB11CF6016081718182819381FC
:104E0000042DA4010E94BA2D6C01098100FF02C08B
:104E100003FF06C071FC07C072FC08C0612C08C00B
:104E20003DE2632E05C02BE2622E02C090E2692EA5
:104E3000802F8C7099F1662011F084E001C083E02E
:104E4000851510F0512C0BC0581A73FC08C0B7011F
:104E500080E290E00E94272F5A94C9F7F3CF662092
:104E600029F0B701862D90E00E94272F03FD03C093
:104E700008EF15E002C004EF15E0F72DF0717F2E6A
:104E8000F8018491882309F476C271108052B70129
:104E900090E00E94272F0F5F1F4FF2CF77FE0FC0C9
:104EA0004C0C04FF04C08A81813309F44A94141421
:104EB00074F5F8E0F41578F588E0482E2CC076FCFF
:104EC0002AC0812F90E08C159D059CF06CEFC616D2
:104ED0006FEFD60674F0772D7068772E0AC0E2E087
:104EE000F0E0EC0FFD1FE10FF11D8081803319F41C
:104EF00011501111F4CF77FE0EC044244394410E9B
:104F0000812F90E0C816D9062CF41C1904C0442443
:104F1000439401C010E077FE07C01C141D043CF44C
:104F200096012F5F3F4F05C025E030E002C021E031
:104F300030E0662011F02F5F3F4F112331F0412FF9
:104F400050E04F5F5F4F240F351F452D50E0241771
:104F5000350714F4521A01C0512C872D897049F479
:104F6000552039F0B70180E290E00E94272F5A9433
:104F7000F7CF662029F0B701862D90E00E94272FF9
:104F800073FC09C0552039F0B70180E390E00E941E
:104F9000272F5A94F7CF77FE5FC09C2D8D2DD7FE1B
:104FA00002C090E080E0692E782E40E050E0C6011B
:104FB000841991099D878C87960126193709280D38
:104FC000391D812F90E0EE27FF27E81BF90BFF87A3
:104FD000EE87FFEF6F167F0669F4B7018EE290E06F
:104FE0002B8B3A8B488B598B0E94272F59894889E4
:104FF0003A892B89C614D70454F06C857D856615D3
:1050000077052CF4F901E40FF51F818101C080E3DD
:1050100071E0671A71084F5F5F4FEE85FF856E166E
:105020007F066CF0B70190E02B8B3A8B488B598B45
:105030000E94272F2B893A8948895989CACF6C1435
:105040007D0439F49A81963318F4953311F404FFF2
:1050500081E3B70190E04BC08A81813309F00F7E74
:10506000B70190E00E94272F111105C074FE18C0EF
:1050700085E490E017C0B7018EE290E00E94272FF0
:1050800082E066246394680EF401E80FF11D8081CC
:10509000B70190E00E94272F115041F3862DF1CFE8
:1050A00085E690E0B7010E94272FD7FC05C0C11408
:1050B000D10439F404FF05C0D194C194D1088DE224
:1050C00001C08BE2B70190E00E94272F80E36AE0E5
:1050D000C616D1042CF08F5FFAE0CF1AD108F7CFB3
:1050E000B70190E00E94272FB701C601C0960E9429
:1050F000272F41C1833631F0833779F0833509F0AA
:1051000058C021C0560172E0A70EB11CF601808183
:10511000898301E010E0640114C05601F2E0AF0E93
:10512000B11CF601C080D18026FF03C0612F70E062
:1051300002C06FEF7FEFC6012B8B0E94EA2E8C011D
:105140002B892F7715C05601F2E0AF0EB11CF60186
:10515000C080D18026FF03C0612F70E002C06FEFD6
:105160007FEFC6012B8B0E94922E8C012B89206829
:10517000722E23FD1AC0852D90E008171907A8F498
:10518000B70180E290E00E94272F5A94F4CFF601F5
:1051900077FC859177FE81916F01B70190E00E94C5
:1051A000272F51105A94015011090115110579F753
:1051B000E2C0843611F0893651F5560127FF09C047
:1051C000F4E0AF0EB11CF6016081718182819381A0
:1051D0000AC0F2E0AF0EB11CF60160817181882730
:1051E00077FD8095982F022F0F7697FF08C0909536
:1051F0008095709561957F4F8F4F9F4F00682AE093
:1052000030E0A4010E947B2FC82EC8183EC0022F98
:10521000853721F40F7E2AE030E01DC0097F8F36EC
:1052200091F018F4883559F0B0C0803719F08837FC
:1052300011F0ABC0006104FF09C0046007C024FF87
:1052400008C0066006C028E030E005C020E130E07C
:1052500002C020E132E0560107FF09C0F4E0AF0EC2
:10526000B11CF601608171818281938108C0F2E0F6
:10527000AF0EB11CF6016081718180E090E0A40165
:105280000E947B2FC82EC8180F7706FF0BC0202F57
:105290002E7FC11650F404FF0AC002FD08C0202F63
:1052A0002E7E05C0DC2C202F03C0DC2C01C0D12EAB
:1052B00024FF0DC0FE01EC0DF11D8081803311F43F
:1052C000297E09C022FF06C0D394D39404C0822F44
:1052D000867809F0D39423FD13C020FF06C01C2D4F
:1052E000D51418F4150D1D19D52CD51468F4B70173
:1052F00080E290E02B8B0E94272FD3942B89F5CF4F
:10530000D51410F45D1801C0512C24FF12C0B70150
:1053100080E390E02B8B0E94272F2B8922FF17C060
:1053200021FF03C088E590E002C088E790E0B70164
:105330000CC0822F867859F021FD02C080E201C0A6
:105340008BE227FD8DE2B70190E00E94272FC11666
:1053500038F4B70180E390E00E94272F1150F7CF77
:10536000CA94F401EC0DF11D8081B70190E00E9418
:10537000272FC110F5CF552009F4C2CCB70180E228
:1053800090E00E94272F5A94F6CFF70186819781EB
:1053900002C08FEF9FEF6396E2E10C94952D505879
:1053A000BB27AA270ED0A3C194D130F099D120F009
:1053B00031F49F3F11F41EF464C10EF4E095E7FB55
:1053C0005AC1E92FA5D180F3BA1762077307840782
:1053D000950718F071F49EF5BDC10EF4E0950B2E03
:1053E000BA2FA02D0B01B90190010C01CA01A00137
:1053F0001124FF27591B99F0593F50F4503E68F192
:105400001A16F040A22F232F342F4427585FF3CFD2
:10541000469537952795A795F0405395C9F77EF4A3
:105420001F16BA0B620B730B840BBAF09150A1F0EC
:10543000FF0FBB1F661F771F881FC2F70EC0BA0F72
:10544000621F731F841F48F4879577956795B795FA
:10545000F7959E3F08F0B3CF9395880F08F09927F2
:10546000EE0F9795879508950CD041C139D140F042
:1054700030D130F021F45F3F19F0FDC051116BC104
:1054800000C146D198F39923C9F35523B1F3951B75
:10549000550BBB27AA2762177307840738F09F5F55
:1054A0005F4F220F331F441FAA1FA9F333D00E2EC4
:1054B0003AF0E0E830D091505040E695001CCAF731
:1054C00029D0FE2F27D0660F771F881FBB1F2617F6
:1054D00037074807AB07B0E809F0BB0B802DBF01C9
:1054E000FF2793585F4F2AF09E3F510568F0C3C0D5
:1054F00032C15F3FECF3983EDCF386957795679574
:10550000B795F7959F5FC9F7880F911D9695879579
:1055100097F90895E1E0660F771F881FBB1F621798
:1055200073078407BA0720F0621B730B840BBA0B56
:10553000EE1F88F7E095089519F40EF09CC00AC19B
:10554000A0C0EED0C8F39638C0F707F80F92E894E1
:105550002BE33AEA48EB5FE7D1D10F920F920F921B
:105560004DB75EB70F9289D1E2E7F0E08DD04F9151
:105570005F91EF91FF91E595EE1FFF1F49F0FE57F8
:10558000E0684427EE0F441FFA95E1F74195550B6B
:10559000F5D00F9007FEE9C0089504D06894B111CA
:1055A000DAC00895BDD088F09F5790F0B92F9927A1
:1055B000B751A0F0D1F0660F771F881F991F1AF01E
:1055C000BA95C9F712C0B13081F0C4D0B1E00895E6
:1055D000C1C0672F782F8827B85F39F0B93FCCF367
:1055E000869577956795B395D9F73EF49095809514
:1055F000709561957F4F8F4F9F4F0895E89409C034
:1056000097FB3EF490958095709561957F4F8F4FF5
:105610009F4F9923A9F0F92F96E9BB279395F6950B
:10562000879577956795B795F111F8CFFAF4BB0F89
:1056300011F460FF1BC06F5F7F4F8F4F9F4F16C0ED
:10564000882311F096E911C0772321F09EE8872F77
:10565000762F05C0662371F096E8862F70E060E033
:105660002AF09A95660F771F881FDAF7880F9695AC
:10567000879597F9089597F99F6780E870E060E053
:1056800008959FEF80EC0895DF93CF931F930F93BE
:10569000FF92EF92DF927B018C01689405C0DA2EB5
:1056A000EF012AD1FE01E894A5912591359145910C
:1056B0005591AEF3EF0185DEFE019701A801DA9462
:1056C00079F7DF90EF90FF900F911F91CF91DF91CD
:1056D000089500240A941616170618060906089558
:1056E00000240A9412161306140605060895092EBE
:1056F0000394000C11F4882352F0BB0F40F4BF2B2D
:1057000011F460FF04C06F5F7F4F8F4F9F4F08956C
:1057100057FD9058440F551F59F05F3F71F0479562
:10572000880F97FB991F61F09F3F79F08795089547
:10573000121613061406551FF2CF4695F1DF08C066
:10574000161617061806991FF1CF86957105610583
:1057500008940895E894BB2766277727CB0197F92B
:10576000089521D108F48FEF08959B01AC0160E00A
:1057700070E080E89FE378CE7ECF39C1D1DFE8F3D7
:105780009923D9F3940F511DBBF39150504094F0DD
:1057900059F0882332F0660F771F881F91505040D0
:1057A000C1F79E3F510544F7880F911D9695879547
:1057B00097F908955F3FACF0983E9CF0BB27869523
:1057C00077956795B79508F4B1609395C1F7BB0FCE
:1057D00058F711F460FFE8CF6F5F7F4F8F4F9F4FF7
:1057E000E3CFB9CF0AD029ED3BE54EED5EE378C0BB
:1057F0000EF0FDC046CF68943ECF92DFC8F39923E8
:10580000D1F3C6F3DF93CF931F930F93FF92C92F6A
:10581000DD2788232AF02197660F771F881FDAF784
:1058200020E030E040E85FEB9FE3883920F0803EE5
:1058300030F021968F77B4DDEAE9F0E003C0B0DD07
:10584000E7ECF0E021DF8B01BE01EC01FB2E6F578E
:1058500071097595771F880B990BD2DE28E132E725
:1058600041E35FE349D0AF2D9801AE01FF900F9166
:105870001F91CF91DF91A5DD3ACFFA01DC01AA0F8C
:10588000BB1F9B01AC01BF5728F4222733274427B5
:1058900050781FC0B75188F4AB2F00244695379538
:1058A0002795011CA395D2F3002069F0220F331F26
:1058B000441FB395DAF30DD072CD61307105A0E8C5
:1058C0008A07B94630F49B01AC0166277727882701
:1058D0009078309621F0208331834283538308955A
:1058E0000BD005CFF6DE28F0FBDE18F0952309F08B
:1058F000C2CEC7CE11242FCF0BDFA0F3959FD1F3DB
:10590000950F50E0551F629FF001729FBB27F00D6D
:10591000B11D639FAA27F00DB11DAA1F649F6627C2
:10592000B00DA11D661F829F2227B00DA11D621F11
:10593000739FB00DA11D621F839FA00D611D221FCB
:10594000749F3327A00D611D231F849F600D211DAF
:10595000822F762F6A2F11249F5750408AF0E1F052
:1059600088234AF0EE0FFF1FBB1F661F771F881F9B
:1059700091505040A9F79E3F510570F07CCEEBCE80
:105980005F3FECF3983EDCF3869577956795B79586
:10599000F795E7959F5FC1F7FE2B880F911D9695B0
:1059A000879597F90895990F0008550FAA0BE0E81D
:1059B000FEEF16161706E807F907C0F012161306D1
:1059C000E407F50798F0621B730B840B950B39F411
:1059D0000A2661F0232B242B252B21F408950A2677
:1059E00009F4A140A6958FEF811D811D08959F3F69
:1059F00031F0915020F4879577956795B795880F8A
:105A0000911D9695879597F90895A29FB001B39F30
:105A1000C001A39F700D811D1124911DB29F700DB7
:105A2000811D1124911D08950E94052DA59F900DA3
:105A3000B49F900DA49F800D911D11240895DB014A
:105A40008F939F930E94142DBF91AF91A29F800DC1
:105A5000911DA39F900DB29F900D11240895AA1B34
:105A6000BB1B51E107C0AA1FBB1FA617B70710F049
:105A7000A61BB70B881F991F5A95A9F7809590957B
:105A8000BC01CD01089597FB072E16F4009407D0B2
:105A900077FD09D00E942F2D07FC05D03EF490958C
:105AA00081959F4F0895709561957F4F0895A1E26C
:105AB0001A2EAA1BBB1BFD010DC0AA1FBB1FEE1F88
:105AC000FF1FA217B307E407F50720F0A21BB30BD3
:105AD000E40BF50B661F771F881F991F1A9469F74F
