:100000000C9499030C94B6030C94B6030C94B603A9
:100010000C94B6030C94B6030C94B6030C94B6037C
:100020000C94B6030C9499200C94B6030C94B6036C
:100030000C94B6030C94AF200C94B6030C94B60346
:100040000C94B6030C94B6030C94B6030C94B6034C
:100050000C94B603D523D723D723DA23DA23DA2364
:10006000DA23DA23DD23DF23DF23DF23DF23F82373
:10007000FE2307634236B79BD8A71A39685618AED5
:10008000BAAB558C1D3CB7CC5763BD6DEDFD753ECD
:10009000F6177231BF000000803F08000000BE92DA
:1000A0002449123EABAAAA2ABECDCCCC4C3E0000BD
:1000B0000080BEABAAAAAA3E00000000BF0000005C
:1000C000803F0000000000084178D3BB4387D11374
:1000D0003D190E3CC3BD4282AD2B3E68EC8276BE1C
:1000E000D98FE1A93E4C80EFFFBE01C4FF7F3F00E6
:1000F0000000000000000000001E3531351E1E35D6
:1001000037351E0E1F3E1F0E081C7F1C08184A7F25
:100110004A181C4E7F4E1C0000000000000000002A
:100120000000000000000000000000384444473B8D
:100130000E51F1510E0000000000607E02333F2A94
:100140001C361C2A3E1C1C080808081C1C3E0022E9
:100150007F2200002E002E00067F017F00004A55FE
:1001600029000018181818004A5F4A0000027F0290
:100170000000207F20000008081C0800081C080858
:10018000003C202020081C081C0820383E38200293
:100190000E3E0E02000000000000002F00000003D1
:1001A000000300341C361C1600267F3200320D1E60
:1001B0002C1318262D12280000030000001C2241D9
:1001C000414141221C00000A050A000010381000BD
:1001D0000080600000000808080000002000000007
:1001E00060180601001E21211E00223F2000003160
:1001F0002926000025251A00000C0A3F08002725A3
:100200001900001E2525180001390503001A2525AF
:100210001A000629291E0000240000008064000046
:1002200000080814220014141414002214080800F2
:10023000012905023C4259555E301C121C30003E1B
:100240002A3600001C222222003E22221C003E2AC6
:100250002A00003E0A0A00001C222A3A003E080832
:100260003E00223E22000022221E00003E081422F0
:10027000003E2020203E0418043E003E04083E1CA0
:100280002222221C003E0A0A041C2222629C003EFA
:100290000A142000242A120002023E0202001E203C
:1002A000201E000E30300E0E300C300E22140814BA
:1002B00022020438040200322A2A2600007F41006C
:1002C000010618600000417F000018060106184072
:1002D0004040404000010200000034343820003F1C
:1002E00024241800182424001824243F0000182C6B
:1002F000280000043E0505005854543C003F080403
:100300003800043D00000044443D00003F08142034
:1003100000013F00003C083C083C003C0804380059
:1003200018242418007C2424181824247C00003C61
:1003300008040000282C140000041E2404001C20C3
:10034000103C000C30300C0C301C300C0024181801
:1003500024404C70300C00342C2C00000836410036
:1003600000007F0000004136080010080810080057
:100370003C223C00001CA26222001D20103D0018FF
:100380002C2A010036353922003534392001363423
:1003900038200036353A200018A46400001A2D29B0
:1003A0000200192C2900011A2C280000053C01002C
:1003B00000063D010201063C0000301D121D3030D8
:1003C0001A151A30003E2A2A013414182C28301C21
:1003D000123E2A02192526180019242419011A246C
:1003E0002418021D21123C001D22103C404D70308B
:1003F0000D1D2222221D011E20211E0058342C1A00
:10040000103C2A20005C322A261D002418182400E3
:10041000483E09000034343A2100043C020100182F
:10042000242619001C20123D003D090539013F0515
:10043000093F001D151E00000E110E0000405A203D
:10044000001E213F371E000808380021170C362DEA
:100450002117081639000074000008142A142222FB
:10046000142A1408550055005555AA55AA55FF558C
:10047000FF55FF0000FF00000808FF0000301C12BD
:100480001D30301A151932301D121C303E415D5599
:100490003E14F700FF0000FF00FF0014F404FC000E
:1004A0001417101F00001C36140002143814020820
:1004B00008F8000000000F080808080F08080808DE
:1004C000F808080000FF080808080808080808FFDE
:1004D00008080235353A213219151A31001F101754
:1004E0001400FC04F414141710171414F404F41476
:1004F00000FF00F714141414141414F700F7142256
:100500001C141C221925271D00083E2A221C003F0E
:100510002B2B00013E2A2A01013E2A2A0000043C1E
:10052000000000223E220100233F230001223E2240
:100530000108080F00000000F80808FFFFFFFFFF98
:10054000F0F0F0F0F00000E7000001223E22000F82
:100550000F0F0F0F1C2222221D003E012E101C2304
:1005600023231C1D2222221C02192526191D2323A8
:10057000231C007C20103C007F242418003E14140F
:10058000081E20201E01001F21211F011E20201EE9
:10059000404C30320D02043A050201010101010014
:1005A00000020100000808080000283C2800A0A064
:1005B000A0A0A02B1F081639067F017F00004A5516
:1005C000290000082A0800008040000000060909F0
:1005D000060001000100000008000000111F1000CB
:1005E0000015150A000019151200003C3C3C3C00A7
:1005F000000000006E616E00696E660000407A10B7
:10060000F35A00A0724E18090010A5D4E80000E8C3
:100610007648170000E40B54020000CA9A3B000021
:1006200000E1F505000080969800000040420F00B0
:100630000000A08601000000102700000000E80371
:10064000000000006400000000000A00000000003C
:100650000100000000002C76D888DC674F0823DFFB
:10066000C1DFAE59E1B1B796E5E3E453C63AE651CE
:10067000997696E8E6C28426EB898C9B62ED407CF5
:100680006FFCEFBC9C9F40F2BAA56FA5F490055A91
:100690002AF75C936B6CF9676DC11BFCE0E40D47B6
:1006A000FEF520E6B500D0ED902E030094357705D9
:1006B0000080841E080000204E0A000000C80C3391
:1006C0003333330F986E12831141EF8D2114893B20
:1006D000E65516CFFEE6DB18D1844B381BF77C1DA0
:1006E000901DA4BBE424203284725E228100C9F1F3
:1006F00024ECA1E53D274E414E494E495459494EFF
:1007000046CDCCCC3D0AD7233C17B7D13877CC2B7C
:10071000329595E6241FB14F0A000020410000C821
:100720004200401C4620BCBE4CCA1B0E5AAEC59DA2
:10073000740011241FBECFE5D8E0DEBFCDBF14E0AA
:10074000A0E6B0E0E0EBF1E602C005900D92A63322
:10075000B107D9F717E0A6E3B4E001C01D92AA3DA6
:10076000B107E1F70E94D9240C94D6300C94000014
:1007700080E487B983E086B9379A369A3699FECFF6
:1007800084B195B1089597B18F71907E892B87B907
:10079000369A3699FECF84B195B108958F929F9283
:1007A000AF92BF92CF92DF92EF92FF920F93CF93CF
:1007B000DF93CDB7DEB760970FB6F894DEBF0FBEFC
:1007C000CDBF7C016B014A015901009719F480E00B
:1007D00090E05DC061157105D1F30430C4F707FFE7
:1007E00005C080913E048111F2CF17C080E108025C
:1007F000B001112462547E4F882777FD8095982F91
:1008000020E130E0AE014F5F5F4FF701099588238B
:10081000F1F28D818111E5CFDACF81E1E6E3F4E0F9
:10082000DF011D928A95E9F7F0923704E0923604D1
:10083000D0923904C092380490923B0480923A04DA
:10084000B0923D04A0923C0407FD1CC08D818093B2
:100850003E0489859A85AB85BC8580933F0490933F
:100860004004A0934104B09342048D859E85AF85DA
:10087000B8898093430490934404A0934504B093B3
:10088000460403C08FEF80933E0486E394E06096B5
:100890000FB6F894DEBF0FBECDBFDF91CF910F91A1
:1008A000FF90EF90DF90CF90BF90AF909F908F9090
:1008B0000895009721F0FC01108681E0089580E002
:1008C0000895811102C0959801C0959A949875BBBE
:1008D000949A949865BB949A08959698959A94984A
:1008E00095BB949A949885BB949A969A0895CF93C1
:1008F000DF93EB01BC0180E00E946104BE0181E056
:10090000DF91CF910C9461040F931F93CF93DF93EA
:100910009698F22FE0E08F01042B152BD42FCC27D3
:10092000C82BD92B362F20E0B901682B792B86E113
:1009300090E00E947704B80187E190E00E9477047C
:10094000BE0181E290E00E94770462E270E080E004
:100950000E946104969ADF91CF911F910F910895A3
:10096000CF93DF93DC01CB01EA019D01AD010E9431
:100970008404FE01EE0FFF1FE05AFF4F808191813A
:10098000DF91CF910C946D04009729F4672B89F4C3
:1009900065E371E010C0019761F46115710519F408
:1009A00061E371E008C06130710519F463E371E03F
:1009B00002C067E371E087E090E00C9477040F9346
:1009C0001F93CF93DF93EC018B0197988FEF97E400
:1009D0000197F1F700C00000979A8FEF97E4019715
:1009E000F1F700C00000969A9598939A949A969879
:1009F0008FEF93E20197F1F700C0000060E071E033
:100A000087E090E00E94770460E070E08DE090E085
:100A10000E94770461E070E080E090E00E9477043B
:100A20008FEF97E40197F1F700C0000060E070E2FB
:100A30008EE090E00E94770461E070E08CE090E04E
:100A40000E94770463E070E08DE090E00E947704FC
:100A500060E070E084E090E00E94770463E079E079
:100A60008DE090E00E94770464E174E083E090E020
:100A70000E94770462E172E18EE090E00E947704C8
:100A80008FEF93EB0197F1F700C000006DE173E089
:100A90008DE090E00E94770463E171E081E090E0F6
:100AA0000E94770460E077E082E090E00E947704A3
:100AB00060E370E185E090E00E94770460E070E020
:100AC00086E090E00E94770461E070E48BE090E0C3
:100AD0000E94770460E070E08FE090E00E9477046D
:100AE00060E070E081E190E00E94770460E07FE9DF
:100AF00084E190E00E94770460E070E085E190E09E
:100B00000E94770460E07FE786E190E00E9477042E
:100B100060E07FE987E190E00E94770460E070E0A8
:100B200081E290E00E94770460E070E080E390E072
:100B30000E94770464E072E081E390E00E94770411
:100B400062E073E082E390E00E94770460E070E08E
:100B500083E390E00E94770464E075E084E390E032
:100B60000E94770465E074E085E390E00E947704DA
:100B700067E077E086E390E00E94770460E071E050
:100B800087E390E00E94770466E075E18AE390E0F5
:100B90000E9477046FE070E08BE390E00E9477049E
:100BA00065E070E087E090E00E94770465E270E025
:100BB00087E090E00E94770467E270E087E090E0D1
:100BC0000E947704B801CE010E94C40462E270E082
:100BD00080E00E9461048FEF93E20197F1F700C07B
:100BE0000000969ADF91CF911F910F9108950F9376
:100BF0001F93CF93DF93C82F2FE930E040E050E000
:100C00006FE770E080E090E00E94840400E010E56F
:100C1000D0E0CC0FDD1FC05ADF4F888199810E9440
:100C20006D040150110901151105B9F7DF91CF913C
:100C30001F910F910895CF92DF92EF92FF920F9341
:100C40001F93CF93DF938A01E22E893998F56C3791
:100C500088F5482F50E09A012C5F3F4F862F90E097
:100C6000BC01695F7F4F0E94840485E0E89E7001AB
:100C70001124C0E0D0E0F701EC50FF4F7F01000FDE
:100C8000111F005A1F4FF701EC0FFD1FC49058E0D1
:100C9000D52EC7FE04C0F8018081918102C08FEF7C
:100CA0009FEF0E946D04CC0CDA9499F72196C53021
:100CB000D10549F7DF91CF911F910F91FF90EF90F0
:100CC000DF90CF900895EF92FF920F931F93CF93F1
:100CD000DF9300D0CDB7DEB7982F762F8A01790148
:100CE000F70121917F01222381F02A3019F4785FE6
:100CF00090E0F6CFA801672F892F7A8399830E940D
:100D00001B069981985F7A81EBCF0F900F90DF914E
:100D1000CF911F910F91FF90EF90089597B321E02D
:100D200030E0082E01C0220F0A94EAF7922B97BBFD
:100D3000089597B321E030E001C0220F8A95EAF7C9
:100D4000822F8095892387BB88B3822B88BB089527
:100D500098B321E030E0082E01C0220F0A94EAF790
:100D6000922B98BB089598B321E030E0082E01C083
:100D7000220F0A94EAF72095292328BB0895C09AE8
:100D80000895C0980895B89A0895CF93DF9300D03E
:100D9000CDB7DEB789839A830E94C3060E94C1063D
:100DA00089819A810F900F90DF91CF910C949906D1
:100DB000CF93DF93EC010E948E060000CE010E94CB
:100DC000A8060E94C106000000000E94BF060000A5
:100DD0000000CE010E94B306000000000E94C10680
:100DE0000000000000000000000000000E94BF069C
:100DF00000000000CE010E94A80600000000DF9164
:100E0000CF910C94C1061F93CF93DF93EC010E9406
:100E10008E060000CE010E94A8060E94C1061AE0BC
:100E20000E94BF06000000000E94C10600000000F2
:100E30001150B1F7CE01DF91CF911F910C94D806DC
:100E4000CF92DF92EF92FF920F931F93CF93DF9396
:100E5000F82EE92E0E949906000001E010E00F2C08
:100E600002C0000F111F0A94E2F7C8E0D0E0D12CB5
:100E700080E8C82E0E94BF060000000026B330E0C4
:100E800020233123232B09F0DC280E94C106000017
:100E90000000C6942197209769F78F2D9E2D0E9400
:100EA0008E0600008F2D9E2D0E94B30600000E942A
:100EB000BF060000000000000E94C1060000000004
:100EC0008F2D9E2D0E9499068D2DDF91CF911F9120
:100ED0000F91FF90EF90DF90CF900895CF92DF9227
:100EE000EF92FF920F931F93CF93DF931F92CDB793
:100EF000DEB7E82E162F072F862F972F0E948E061B
:100F0000000098E0C92ED12C20E8F22E8F2D8E21E2
:100F100029F0812F902F0E94A80604C0812F902FC6
:100F20000E94B3060E94BF06000000000E94C10696
:100F300000000000F69481E0C81AD108C114D10461
:100F400029F7812F902F0E94990600000E94BF066A
:100F50000000000086B321E030E001C0220F1A95A6
:100F6000EAF7822389830E94C10689810F90DF916D
:100F7000CF911F910F91FF90EF90DF90CF90089548
:100F80000F931F93CF93DF93C82F162F072F862F12
:100F9000972F0E94D806612F702F8C2F0E946E070A
:100FA00021E030E0012E02C0220F331F0A94E2F745
:100FB00084E146B350E042235323452B69F426B322
:100FC00030E0012E02C0359527950A94E2F720FF04
:100FD0000FC08FEF9FEF20C04FEF5FE593E04150D0
:100FE00050409040E1F700C00000815011F7E7CF7A
:100FF000812F902F0E942007C82FDD27C7FDD09595
:10100000DC2FCC27812F902F0E9420079E01280FD4
:10101000311D87FD3A95C901DF91CF911F910F9145
:1010200008954F925F926F927F928F929F92AF92AC
:10103000BF92CF92DF92EF92FF920F931F93CF93C5
:10104000DF93CDB7DEB728970FB6F894DEBF0FBE9B
:10105000CDBF8C017B0183E00E94C0076C01B7010A
:1010600085E00E94C0075C01B601882777FD809566
:10107000982F0E946F2A2AE037ED43E25CE30E943A
:10108000DF2B20E030E040E252E40E943E296B0179
:101090007C01B501882777FD8095982F0E946F2AE3
:1010A0004B015C0120E030E048EC51E4C701B6019F
:1010B0000E943E292B013C012CEA35EC47EA58E31B
:1010C000C501B4010E94DF2B2AE037ED43E25CE367
:1010D0000E943F299B01AC01C301B2010E94DF2B9A
:1010E00069837A838B839C832DEB32E546E15DE354
:1010F000C501B4010E94DF2B25EC3EEF42E050E435
:101100000E943E292B013C01A5019401C501B401B7
:101110000E94DF2B26EF34E246ED55E30E94DF2BE1
:101120009B01AC01C301B2010E943E299B01AC01AD
:1011300069817A818B819C810E943F294B015C01EE
:101140000E94612B69837A838B839C8323EC35EF28
:101150004CE851E4C701B6010E94DF2B2B013C0192
:1011600028EB3EE143E753E4C701B6010E943F2963
:101170009B01AC01C301B2010E94A3292B013C01D8
:1011800020E030E040E050E469817A818B819C81ED
:101190000E943E2922E93CE54EED5EE30E94A32930
:1011A000A30192010E943F2969837A838B839C83E8
:1011B000C301B2010E94102A6D837E838F839887BA
:1011C000F801C082D182E282F38284829582A68273
:1011D000B78228EB3EE143E753E469817A818B8152
:1011E0009C810E94DF2B2B013C0129813A814B819C
:1011F0005C8163EC75EF8CE891E40E943E299B01D1
:10120000AC01C301B2010E94A329F8016087718774
:101210008287938720E030E048EC52E4C501B401B6
:101220000E94A32921E835E943EC50E40E94DF2B1A
:101230002D813E814F8158850E94DF2B4B015C013F
:1012400023E333E948E853E4C701B6010E943F298C
:101250009B01AC01C501B4010E94A32923E333EB38
:1012600048E553E40E94DF2BF80164877587868781
:10127000978728960FB6F894DEBF0FBECDBFDF91DB
:10128000CF911F910F91FF90EF90DF90CF90BF9083
:10129000AF909F908F907F906F905F904F90089548
:1012A000FF920F931F93CF93DF938C01EB01CB0140
:1012B0000E94D806BE0187E00E946E07F82ECE017C
:1012C0000E942007F80180838F2DDF91CF911F911D
:1012D0000F91FF9008954F925F926F927F92AF921D
:1012E000BF92CF92DF92EF92FF920F931F93CF9313
:1012F000DF9300D0CDB7DEB75C018B01009709F416
:101300004AC06230710508F446C0DC0116964D9063
:101310005D906D907C9019976801E12CF12CCC0CBC
:10132000DD1CEE1CFF1CC40CD51CE61CF71CD501F3
:10133000ED91FC910190F081E02D22E030E0AE01D2
:101340004F5F5F4FC701B6010995882321F10981DD
:101350001A8101151105E9F0C80140960897D8F0E7
:10136000083FBFEF1B0710F000E010E01A8219825F
:10137000D501ED91FC910480F581E02D22E030E073
:10138000AE014F5F5F4FC701B60109950115110509
:1013900019F681E001C080E00F900F90DF91CF91AE
:1013A0001F910F91FF90EF90DF90CF90BF90AF9083
:1013B0007F906F905F904F9008952F923F924F9241
:1013C0005F926F927F928F929F92AF92BF92CF92D5
:1013D000DF92EF92FF920F931F93CF93DF93CDB7DE
:1013E000DEB72C970FB6F894DEBF0FBECDBF6C01F1
:1013F0001B015A01009709F45EC0DC01ED91FC91DC
:101400001197208131813C872B87448155815C83F2
:101410004B8316968D919D910D90BC91A02D8D833F
:101420009E83AF83B887F601E28CF38C8285938527
:10143000A485B585B695A795979587959A87898749
:10144000138E128E812C912C00E010E00AC089814D
:101450009A81892BB9F12FEFE21AF20A3FEF831A32
:10146000930A49855A854815590509F454C0F2E094
:10147000EF16F10418F129853A85E216F306F0F427
:101480002701612C712C440C551C661C771C8D8126
:101490009E81AF81B885480E591E6A1E7B1E22E0D0
:1014A00030E0AE014F5F5F4FC301B201EB85FC85B9
:1014B00009958111CCCF80E090E04FC042E0E42E4E
:1014C000F12CDECFA114B10431F4D6015B96FC926D
:1014D000EE925A9722C00115110529F4EFEFFFEFA4
:1014E000FA83E98302C01A83098322E030E0AE0167
:1014F0004F5F5F4FC301B201EB81FC810995811100
:1015000005C0B801C6010E946B09D5CFF1E0AF1A42
:10151000B1088701A0CFAB28A1F752E0251631040E
:10152000D8F01A830983B10180E090E0660F771F3D
:10153000881F991F2D813E814F815885620F731F2F
:10154000841F951F22E030E0AE014F5F5F4FEB81BB
:10155000FC8109958823A9F2C8012C960FB6F8944E
:10156000DEBF0FBECDBFDF91CF911F910F91FF90D6
:10157000EF90DF90CF90BF90AF909F908F907F9033
:101580006F905F904F903F902F90089580E190E092
:1015900008950F931F93FC01009799F06230710535
:1015A00080F09B0122503109A089B1890E94742CDE
:1015B0000289138924893589600F711F821F931F47
:1015C00003C060E070E0CB011F910F910895D90135
:1015D00012964D915C911397FC019F01281B390BCA
:1015E0002417350768F421913191232BB1F72D9100
:1015F0003C9111972F5F3F4F11963C932E93EDCF67
:1016000081E008950F931F93CF93DF93DC0189014D
:10161000E901E881F9818A819B8180969B838A8395
:101620008C91853E09F47BC0882309F478C01B9611
:101630008C911B978F3009F472C08BE2EF011992E5
:101640008A95E9F747A350A761A772A79D01CF012B
:1016500040E0E90158815032A9F0EC0158831C9612
:101660006C911C9763FF08C0E901688161546A317D
:1016700018F4505EEC0158834F5F2F5F3F4F019687
:10168000483039F78081853011F485EE80831896D3
:101690008C911897803229F1CF01840F911D2EE291
:1016A000EC012883CD01089674E0740F4F5FEC01C4
:1016B00058815032B1F09F01240F311DE901588348
:1016C0001C966C911C9764FF08C0EC016881615402
:1016D0006A3118F4505EE90158834F5F0196471351
:1016E000E6CFCF01840F911DEC0118821B968C91DF
:1016F0001B9780A35A968D919C915B9792A381A38F
:101700005C968D919D910D90BC91A02D83A394A387
:10171000A5A3B6A381E0F801848380E001C081E045
:10172000DF91CF911F910F9108957F928F929F9299
:10173000AF92BF92CF92DF92EF92FF920F931F93DF
:10174000CF93DF93CDB7DEB7A0970FB6F894DEBF87
:101750000FBECDBF5B01009709F473C06115710521
:1017600009F46FC0DC01ED91FC9104811581FB014E
:10177000C7A0D0A4E1A4F2A4DB010D900020E9F7FA
:10178000FD0131974F01861A970A782C4BE050E003
:1017900060E270E0CE0101960E941A2E6EE270E0C7
:1017A000C5010E94642E0097D9F0DC0111962C919E
:1017B0002223B1F0BC016F5F7F4FFB01019000203D
:1017C000E9F73197E61BF70BE430D8F577247A94E4
:1017D000780C7E1AAF015527CE0109960E94112E72
:1017E000B8E0B71570F1472D50E0B501CE01019674
:1017F0000E94112E8981853E11F485E08983FE01C6
:101800003C9685E1DF011D928A95E9F7F50180A1FB
:101810008C8781A192A19C8F8B8F83A194A1A5A17C
:10182000B6A18D8F9E8FAF8FB8A320E230E0AE01BE
:101830004F5F5F4FC701B601F801099591E0811133
:1018400001C090E0892FA0960FB6F894DEBF0FBEBE
:10185000CDBFDF91CF911F910F91FF90EF90DF905F
:10186000CF90BF90AF909F908F907F9008950F93EF
:101870001F93CF93DF9300D0CDB7DEB7FC01009765
:1018800031F16230710518F1A081B18180E090E002
:10189000660F771F881F991F068117812085318564
:1018A000600F711F821F931FED91FC9122E030E0C9
:1018B000AE014F5F5F4F0995882349F029813A8136
:1018C000C90101978F3E9F4F10F4C90102C080E00B
:1018D00090E00F900F90DF91CF911F910F9108959D
:1018E000EF92FF920F931F93CF93DF93CDB7DEB7A5
:1018F00060970FB6F894DEBF0FBECDBF8C0162308B
:101900007105D8F00E94C90AAE014F5F5F4F20E118
:10191000DA011D922A95E9F7D801ED91FC91119712
:1019200050962D913C9151970680F781E02DE12C46
:10193000F12C06EC1AE0099501C080E060960FB624
:10194000F894DEBF0FBECDBFDF91CF911F910F91F5
:10195000FF90EF9008954F925F926F927F92AF92B7
:10196000BF92CF92DF92EF92FF920F931F93CF938C
:10197000DF931F92CDB7DEB78C01009709F47EC0CC
:10198000452B09F47BC0DB01AD90BC90A114B104E0
:1019900051F4FC01C688D788E08CF18C42885388CA
:1019A0006488758806C0412C512C3201C12CD12C81
:1019B0007601C414D504E604F70409F041C0A1146B
:1019C000B10409F45BC0CD28CE28CF2841F1B50180
:1019D000C8010E94370C009709F541E050E0B501BD
:1019E000C8010E94DD09AC01009709F447C09C01C1
:1019F00022503109F801A089B1890E94742C6B0131
:101A00007C0182899389A489B589C80ED91EEA1EF2
:101A1000FB1EBA01C8010E94700C2DC05C01B5010B
:101A2000C8010E94C90A6B017C01D80150968D91B2
:101A30009C91519726013701480E591E611C711C5B
:101A4000D801ED91FC910190F081E02D21E030E092
:101A5000AE014F5F5F4FC701B6010995882371F052
:101A60008981853E41F0882331F0B0E2CB0ED11C54
:101A7000E11CF11C9ECFB601C70104C060E070E01C
:101A800080E090E00F90DF91CF911F910F91FF9038
:101A9000EF90DF90CF90BF90AF907F906F905F906E
:101AA0004F9008952F923F924F925F926F927F9244
:101AB0008F929F92AF92BF92CF92DF92EF92FF925E
:101AC0000F931F93CF93DF93CDB7DEB7A8970FB6D1
:101AD000F894DEBF0FBECDBF9B8F8A8F009709F4AD
:101AE00040C1DC0114968D919C911597892B09F4C6
:101AF00038C116968D919C911797892B09F431C1A5
:101B00008091AB049091AC04892B09F02AC1EBEAD7
:101B1000F4E08CE1DF011D928A95E9F7EA8DFB8DF7
:101B2000F093AC04E093AB0481849284A384B484E6
:101B300009E0880C991CAA1CBB1C0A95D1F7C501A9
:101B4000B401655F7F4F8F4F9F4F0190F081E02D73
:101B500029E130E0AE014F5F5F4F0995811105C06B
:101B60001092AC041092AB04FCC029803A80EC8146
:101B7000FD81FD8FEC8FFB81FE8FAE814F815885FB
:101B800058A34F8F89859A852C853D85CE88DF881F
:101B9000E88CF98CC114D104E104F10429F4009714
:101BA000F9F26C01E12CF12C21153105C9F2B0E0FC
:101BB0000E94742C69A37AA38BA39CA3970186012E
:101BC0008C8D9D8D081B190B2109310989A19AA1C2
:101BD000ABA1BCA1081B190B2A0B3B0BC101019740
:101BE0004F8D58A165E0440F551F6A95E1F7840FAA
:101BF000951FB1010E949E2C061B170B210931096C
:101C00009E8D492E512C612C712CC901B801A30164
:101C100092010E94C62C29013A01253FAFE03A0704
:101C20004105510508F49CCF253FBFEF3B07410517
:101C3000510528F486E0EA8DFB8D808705C08BE096
:101C4000AA8DBB8D18968C9388E1EDEAF4E0DF0154
:101C50001D928A95E9F7C101A0E0B0E08DA39EA393
:101C6000AFA3B8A7A7019601BC01CD010E948E2C9D
:101C70006093AD047093AE048093AF049093B0046E
:101C80009101AC8DBD8D0E94742C6B017C01C80C40
:101C9000D91CEA1CFB1CC092B104D092B204E092A1
:101CA000B304F092B404C301B2016E5F7F4F8F4F53
:101CB0009F4FAA8DBB8D18962C91263029F422E0D7
:101CC00030E040E050E004C024E030E040E050E08C
:101CD0000E948E2C6093B5047093B6048093B70471
:101CE0009093B8043092BA042092B904BE8DB29D8C
:101CF000C001B39D900D11249093BC048093BB044C
:101D000029A13AA14BA15CA16DA17EA18FA198A5AB
:101D10000E948E2C6C0D7D1D8E1D9F1D6093C10435
:101D20007093C2048093C3049093C404EF8DF8A110
:101D30008F0120E030E045E0000F111F221F331F0C
:101D40004A95D1F7060F171F281F391F0093BD04AE
:101D50001093BE042093BF043093C0048BEA94E038
:101D600002C080E090E0A8960FB6F894DEBF0FBEE8
:101D7000CDBFDF91CF911F910F91FF90EF90DF903A
:101D8000CF90BF90AF909F908F907F906F905F901B
:101D90004F903F902F900895009719F0FC01118209
:101DA00010820895009759F16115710541F1FB0109
:101DB00020A124FD24C02091780430917904232BA4
:101DC000F1F42BE2FB01AAE7B4E001900D922A9511
:101DD000E1F790937904809378041092A50410920F
:101DE000A6041092A7041092A804FB0181A192A15D
:101DF0009093AA048093A90488E794E0089580E072
:101E000090E00895009719F0FC0111821082089566
:101E10002F923F924F925F926F927F928F929F92FA
:101E2000AF92BF92CF92DF92EF92FF920F931F93E8
:101E3000CF93DF93CDB7DEB728970FB6F894DEBF08
:101E40000FBECDBF98878F831B017A01892B19F4B0
:101E50008FEF9FEFCFC061157105D1F3411551058B
:101E6000B9F3AF81B8859D968D909D90AD90BC9053
:101E7000D09795968D919D910D90BC91A02DB50117
:101E8000A4014E0D5F1D611D711D84179507A607E6
:101E9000B70728F47C01E818F90809F4A9C0AF8154
:101EA000B885ED91FC911197808991899A838983F6
:101EB000D1960D911C91D29701151105D9F59396E4
:101EC0000D911C9194970115110561F481E090E04A
:101ED00089288A288B2811F480E090E091958195DB
:101EE000910988C081149104A104B10419F124015D
:101EF0003501A981BA819D0140E050E042165306A8
:101F000064067506B8F0421A530A640A750AB801E5
:101F1000EF81F885808191812B833C834D835E83A3
:101F20000E94370C8C012B813C814D815E81009792
:101F300029F78ECFC980DA80F1E0CF1AD108C82006
:101F4000D9205701AF81B8856D907C90B801C3014D
:101F50000E94C90A89809A808C189D08A814B90427
:101F600008F44501D301ED91FC916C0D7D1D811D9F
:101F7000911D0190F081E02D9401A1010995882324
:101F800039F1280C391CA818B908EF81F88585A506
:101F900096A5A7A5B0A9880D991DA11DB11D85A75E
:101FA00096A7A7A7B0AB8C0C9D1C89819A81881637
:101FB0009906A0F0B801808191810E94370C8C01B4
:101FC000009751F4AF81B885D2961C921E92D1979A
:101FD000C7018A199B090EC0C12CD12CEF81F8854D
:101FE00012AB01ABA114B10409F0ACCFC70102C020
:101FF00080E090E028960FB6F894DEBF0FBECDBF0C
:10200000DF91CF911F910F91FF90EF90DF90CF90D4
:10201000BF90AF909F908F907F906F905F904F9008
:102020003F902F9008952F923F924F925F926F9220
:102030007F928F929F92AF92BF92CF92DF92EF9258
:10204000FF920F931F93CF93DF9300D000D0CDB7B3
:10205000DEB79C838B836B015A834983892B19F4E8
:102060008FEF9FEF0DC161157105D1F389819A81C1
:10207000892BB1F3AB81BC819D964D915D916D91A2
:102080007C91D09795968D919D910D90BC91A02DAE
:1020900084179507A607B70718F3EB81FC818081A9
:1020A0009181DC0150962D903C90519701A912A985
:1020B0007101B1E0EB1AF108E422F52201151105D6
:1020C00009F04EC003A114A101151105A1F4452B7F
:1020D000462B472B29F641E050E060E070E00E947B
:1020E000DD098C01EB81FC8194A383A3009719F493
:1020F00080E090E0C5C0AB81BC819D968D909D90A5
:10210000AD90BC90D09781149104A104B10441F129
:102110002101612C712C84149504A604B70400F1EC
:1021200084189508A608B708B801EB81FC81808166
:1021300091810E94370C009789F481149104A104C5
:10214000B10409F08DCF41E050E0B801AB81BC8112
:102150008D919C910E94DD09009751F28C01DBCF9B
:10216000A980BA80EB81FC8160807180B801C301D5
:102170000E94C90A41018E189F08A814B90408F4E6
:102180004501D301ED91FC916E0D7F1D811D911DC7
:102190000480F581E02D9401A6010995882309F4B6
:1021A00042C0C80CD91CA818B908EB81FC8185A5D0
:1021B00096A5A7A5B0A9880D991DA11DB11D85A73C
:1021C00096A7A7A7B0AB8E0C9F1C8214930408F1AE
:1021D000B801808191810E94370C0097B9F4A11455
:1021E000B10439F4AB81BC81D2961C921E92D19776
:1021F0001AC041E050E0B801EB81FC8180819181FF
:102200000E94DD098C01009711F4ECCF8C01E12CC8
:10221000F12CAB81BC81D2961C930E93D197A11463
:10222000B10409F09FCFEB81FC8185A596A5A7A5F8
:10223000B0A9C5A0D6A0E7A0F0A4C816D906EA06A2
:10224000FB06D0F485A396A3A7A3B0A7BF016E5F3A
:102250007F4F808191810E94950B81110DC0AB81D0
:10226000BC819D96AD90BC909E97AC18BD08FD01B9
:10227000C5A6D6A6E7A6F0AA89819A818A199B09E4
:102280000F900F900F900F90DF91CF911F910F91B2
:10229000FF90EF90DF90CF90BF90AF909F908F9086
:1022A0007F906F905F904F903F902F9008952F9266
:1022B0003F924F925F926F927F928F929F92AF92D6
:1022C000BF92CF92DF92EF92FF920F931F93CF9323
:1022D000DF9300D0CDB7DEB71C016A017B01009708
:1022E00011F480E0BFC0DC0193960D911C9194978E
:1022F000ED91FC91808891880115110529F0260146
:102300003701A12CB12C13C0411551056105710590
:10231000B1F797C0B801F101808191810E94370C1B
:10232000009769F0481859086A087B088C018414E2
:102330009504A604B70470F301151105F9F4C5015D
:10234000B401640D751D861D971D615071098109C9
:102350009109A50194010E94C62CA901B801D101DF
:102360008D919C910E94DD09009709F4BACF011567
:10237000110521F4F10194A383A38C01D101959659
:10238000CD92DD92ED92FC929897C114D104E104B4
:10239000F10421F494961C921E929397B1016E5F02
:1023A0007F4FF101808191810E94950B882309F470
:1023B00098CFC114D104E104F10429F4B801D1018A
:1023C0008D919C913CC084149504A604B704C8F177
:1023D000F101A080B180A114B10499F1023011057E
:1023E00080F1B801C5010E94370C4C018FEF9FEFBF
:1023F0009A838983D501ED91FC911197B80180E012
:1024000090E0660F771F881F991F16960D911D91FA
:102410002D913C911997600F711F821F931F0480AB
:10242000F581E02D22E030E0AE014F5F5F4F09956E
:10243000882339F08114910421F0B401C5010E9470
:102440006B09F10185A596A5A7A5B0A9C816D9065F
:10245000EA06FB0630F4C5A6D6A6E7A6F0AA12AA9D
:1024600011AA81E00F900F90DF91CF911F910F91F2
:10247000FF90EF90DF90CF90BF90AF909F908F90A4
:102480007F906F905F904F903F902F900895CF92E4
:10249000DF92EF92FF920F931F93CF93DF93EC01A4
:1024A0008B01009709F443C06115710509F43FC021
:1024B0008DA59EA5AFA5B8A9413099F060F0423036
:1024C000B1F5FB01C080D180E280F3808DA19EA197
:1024D000AFA1B8A50BC0FB01C080D180E280F38022
:1024E00009C0FB01C080D180E280F380C80ED91EF4
:1024F000EA1EFB1E8DA19EA1AFA1B8A58C159D055E
:10250000AE05BF0568F0CDA6DEA6EFA6F8AA1AAA0A
:1025100019AAF801C082D182E282F38281E008C068
:10252000B701A601CE010E9457118111ECCF80E0C6
:10253000DF91CF911F910F91FF90EF90DF90CF909F
:102540000895009739F16115710521F1FB0120A172
:1025500024FF20C02091470430914804232BD1F45C
:102560002BE2FB01A9E4B4E001900D922A95E1F77A
:102570009093480480934704FB0181A192A190931A
:10258000750480937404109277041092760487E4A3
:1025900094E0089580E090E00895009719F0FC0120
:1025A000118210820895FC01009741F083A194A14B
:1025B00096A785A710AA17A681E0089580E0089540
:1025C0002F923F924F925F926F927F928F929F9243
:1025D000AF92BF92CF92DF92EF92FF920F931F9331
:1025E000CF93DF93CDB7DEB7A7970FB6F894DEBFD2
:1025F0000FBECDBF4C010097C1F061157105A9F068
:10260000DC012D903C901197F101408851889D96F6
:102610006D907C909E979F96AD90BC90D097A4149F
:10262000B50428F0C4010E94D31280E073C09E015B
:102630002F5D3F4F3FA32EA385E0D9011D928A95C0
:10264000E9F78BE2FB0111928A95E9F77AA369A376
:1026500061147104F1F5D10152964D905C9053973D
:1026600056968D919C915797481A590A32C082010B
:102670000A191B096501E12CF12C6114710469F53B
:10268000F10166897789808D918D6C0D7D1D8E1D80
:102690009F1D1CA21BA2D101ED91FC910280F38130
:1026A000E02D9E012F5D3F4F690122E0E22E2BE0DD
:1026B000F22E20E230E0AE014F5F5F4F0995882394
:1026C00009F4B3CF8BA19CA1A80EB91EA414B50424
:1026D00048F48DA1882359F213C0B301C1010E94AF
:1026E000C90AD3CFB301C1010E94370C3C01009746
:1026F00021F48DA1811104C095CFA12CB12CE9CF7B
:10270000D4019E967C926E929D97D096BC92AE928A
:102710009F978DA1A7960FB6F894DEBF0FBECDBFD1
:10272000DF91CF911F910F91FF90EF90DF90CF90AD
:10273000BF90AF909F908F907F906F905F904F90E1
:102740003F902F9008958F929F92AF92BF92CF9219
:10275000DF92EF92FF920F931F93CF93DF935C0171
:10276000EB018A01009709F46AC0209709F467C059
:102770008881882309F463C04115510509F45FC0BD
:102780008F3209F421968BE2F80111928A95E9F7CC
:1027900080E1F80180A38881811102C081E050C0EE
:1027A000B801C5010E94A1127C01009709F447C03D
:1027B0006FE270E0CE010E94212E009741F0C82EFA
:1027C000CC1A4C012FEF821A920AD12C16C0FE01AE
:1027D00001900020E9F73197EC1BFD0BCE2E4E0146
:1027E0008E0E911CF2CFF80101900020E9F731978D
:1027F000E01BF10BEC15FD0539F0B801C7010E9493
:10280000E0128111F0CF17C0A601B801CE010E94DD
:102810003C2E892B91F7C7010E94CD12CC0DDD1DF6
:102820008881882309F4BACFF80180A184FF07C00A
:10283000E401E12CF12CC7010E94CD12ACCF80E065
:10284000DF91CF911F910F91FF90EF90DF90CF908C
:10285000BF90AF909F908F900895CF92DF92EF92AC
:10286000FF920F931F93CF93DF938C016B01EA01CB
:102870000097F1F161157105D9F1FB018081882381
:10288000B9F12097A9F1BE01C8010E94E012882386
:1028900059F0BE01C6010E942C2E892BA1F7C80158
:1028A0000E94D31292E025C0F801E080F1808BE213
:1028B000FE0111928A95E9F74FE150E0B601CE0191
:1028C0000E944A2EB8016D5D7F4FAE01C7010E9484
:1028D000AB0C6FA378A789A79AA7672B682B692BE6
:1028E00039F0BE01C7010E94950B91E0811101C032
:1028F00090E0892FDF91CF911F910F91FF90EF9082
:10290000DF90CF900895EF92FF920F931F93CF9394
:10291000DF931F92CDB7DEB78C017B01009711F4D6
:1029200080E02FC061157105D9F3DB0197966D9199
:102930007D918D919C919A97611571058105910505
:1029400079F325EE2983D801ED91FC910480F5817E
:10295000E02D21E030E0AE014F5F5F4F0995882305
:10296000F9F2F70161A172A16115710541F0C80189
:102970000E946B0991E0811103C090E001C091E0D9
:10298000892F0F90DF91CF911F910F91FF90EF90C2
:102990000895EF92FF920F931F93CF93DF93CDB7DC
:1029A000DEB7AB970FB6F894DEBF0FBECDBF7C018C
:1029B0008B01CA01E114F104D9F161157105C1F16E
:1029C0000097B1F12115310521F0F901408144232F
:1029D00079F1FC0140815181E416F50649F5211594
:1029E000310509F49801AE014F5F5F4FB9010E94B4
:1029F0002D148823E9F0F80180A189A381A192A177
:102A00009BA38AA343A154A165A176A14CA35DA376
:102A10006EA37FA3BE016F5F7F4FC7010E94950B1E
:102A2000811108C0BE016F5F7F4FC7010E948314F0
:102A300080E012C0F80112A211A2B801C7010E94E1
:102A400083148823A9F38BE2FE013196D80101900B
:102A50000D928A95E1F781E0AB960FB6F894DEBF50
:102A60000FBECDBFDF91CF911F910F91FF90EF90DF
:102A700008954F925F926F927F92AF92BF92CF92E2
:102A8000DF92EF92FF920F931F93CF93DF936C012E
:102A90005B01EA01009709F48CC06115710509F426
:102AA00088C0FB018081882309F483C0209709F442
:102AB00080C0BE01C6010E94E012882351F0BE0111
:102AC000C5010E942C2E892BA1F7C6010E94D312AA
:102AD00070C0F6010081118141E050E060E070E0DB
:102AE000C8010E94DD097C01009709F462C0BC01A5
:102AF000C8010E94700C8BE2FE0111928A95E9F7E1
:102B000080E188A3F801A089B18997012250310999
:102B10000E94742C4288538864887588640D751DE2
:102B2000861D971D6FA378A789A79AA73EE2732EEB
:102B30007882FAA2E9A2BE01C8010E94950B8823FF
:102B4000A1F18FA198A5A9A5BAA58096A11DB11D37
:102B50008FA398A7A9A7BAA77982F60183A194A108
:102B60009AA389A3BE01C8010E94950B8823E9F0AE
:102B70004FE150E0B501CE010E944A2EFAA2E9A22F
:102B8000B6016D5D7F4FAE01C8010E94AB0C6FA313
:102B900078A789A79AA7672B682B692B31F0BE010C
:102BA000C8010E94950B811106C0B701C8010E949F
:102BB0006B0980E001C081E0DF91CF911F910F91FF
:102BC000FF90EF90DF90CF90BF90AF907F906F908D
:102BD0005F904F900895009791F0FC012285338516
:102BE0004485558556954795379527952250310947
:102BF00041095109A089B1890E94832C089560E0A0
:102C000070E0CB0108952F923F924F925F926F92A6
:102C10007F928F929F92AF92BF92CF92DF92EF926C
:102C2000FF920F931F93CF93DF93CDB7DEB7A69795
:102C30000FB6F894DEBF0FBECDBF3C01009721F464
:102C400060E070E0CB0156C01AA219A280E290E0C9
:102C50009CA38BA3D30116962D903D904D905C9034
:102C600019971A968D909D90AD90BC901D978114E8
:102C70009104A104B104B9F1BEEF8B16BFEF9B061E
:102C8000A104B10418F49EA28DA204C0EEEFFFEFE0
:102C9000FEA3EDA3D301ED91FC910280F381E02D21
:102CA0009E012F5D3F4F690177EEE72E7AE0F72E08
:102CB0000DA11EA120E230E0AE014F5F5F4FC201C7
:102CC000B1010995882309F4BBCF0DA11EA1C8014C
:102CD000A0E0B0E0280E391E4A1E5B1E881A990A31
:102CE000AA0ABB0AC4CFA9A1BAA1F30120893189DC
:102CF0000E94742CA6960FB6F894DEBF0FBECDBF0F
:102D0000DF91CF911F910F91FF90EF90DF90CF90C7
:102D1000BF90AF909F908F907F906F905F904F90FB
:102D20003F902F9008950F931F93CF93DF93EC0163
:102D30008B01B801CE010E94E012882359F062EAAB
:102D400070E0C8010E942C2E892B99F7CE010E94B9
:102D5000D31281E0DF91CF911F910F910895AF922F
:102D6000BF92CF92DF92EF92FF920F931F93CF9378
:102D7000DF938111E2C0C0919407C03A08F0DBC034
:102D800060919C0770919D0780919E0790919F078D
:102D90000E943C2AD62F609397076091A0077091FC
:102DA000A1078091A2079091A3070E943C2A6093FB
:102DB00098076091A4077091A5078091A60790914C
:102DC000A7070E943C2A6093990780919E0081305A
:102DD00009F079C0C0E0D0E08091940742E050E073
:102DE000BE0190E00E94B0042196C931D105A1F73F
:102DF000C9E1D0E08091940742E050E0BE0190E04C
:102E00000E94B0048091940790E042E050E0BE013F
:102E100001960E94B0048091940790E040E050E059
:102E2000BE0102960E94B004C931D10509F1219674
:102E3000C537D105F9F660919707772767FD70953B
:102E4000695C7F4F8091940747E050E090E00E94DA
:102E5000B00460919807772767FD70956A507109F3
:102E60008091940749E050E090E00E94B00465C072
:102E70008091940700E010E090E06C0123E0C20E26
:102E8000D11C5C0122E0A20EB11C9601200F311F63
:102E90000F5F1F4F8091940790E00596821793076C
:102EA00034F240E050E069E170E07501E00EF11E9F
:102EB000C7010E94B00440E050E064E770E0C70141
:102EC0000E94B004E2CF6D2F772767FD7095695C93
:102ED0007F4F44E050E08C2F90E00E94B00460915E
:102EE0009807772767FD70956A507109809194075C
:102EF00046E050E090E00E94B004809109078130E4
:102F000049F48091940743E050E064E770E090E07A
:102F10000E94B00460919507709196078091940784
:102F200041E050E090E00E94B004809194078F5FF0
:102F30008093940702C01092940780919E00813084
:102F400009F49BC0823009F018C18091AB078F93C0
:102F50008091AA078F938091A9078F938091A807EA
:102F60008F938AEA90E09F938F93C8E3D7E0DF9333
:102F7000CF930E94C82E9E0145E050E065E780E5B2
:102F80000E94630680919F078F9380919E078F9385
:102F900080919D078F9380919C078F9385EB90E0A4
:102FA0009F938F93DF93CF930E94C82E9E0144E09E
:102FB00050E060E08FE50E9463068091A3078F9345
:102FC0008091A2078F938091A1078F938091A00792
:102FD0008F938EEB90E09F938F93DF93CF930E941C
:102FE000C82E9E0146E050E068E08FE50E9463062F
:102FF0008091A7078F938091A6078F938091A50753
:103000008F938091A4078F9388EC90E09F938F9388
:10301000DF93CF930E94C82E8DB79EB780960FB6D0
:10302000F8949EBF0FBE8DBF9E0145E050E060E169
:103030008FE50E946306809196078F938091950794
:103040008F9384ED90E09F938F93DF93CF930E94B3
:10305000C82E2AE431E042E050E060E088E40E94BB
:1030600063060F900F900F900F900F900F909E019E
:1030700041E050E060E088E474C08091AB078F933A
:103080008091AA078F938091A9078F938091A807B9
:103090008F938AEA90E09F938F93C8E3D7E0DF9302
:1030A000CF930E94C82E9E0148E050E065E780E083
:1030B0000E94630680919F078F9380919E078F9354
:1030C00080919D078F9380919C078F9385EB90E073
:1030D0009F938F93DF93CF930E94C82E9E0147E06A
:1030E00050E060E080E00E9463068091A3078F9328
:1030F0008091A2078F938091A1078F938091A00761
:103100008F938EEB90E09F938F93DF93CF930E94EA
:10311000C82E9E0149E050E068E080E00E9463060E
:103120008091A7078F938091A6078F938091A50721
:103130008F938091A4078F9388EC90E09F938F9357
:10314000DF93CF930E94C82E8DB79EB780960FB69F
:10315000F8949EBF0FBE8DBF9E0148E050E060E135
:1031600080E0DF91CF911F910F91FF90EF90DF9062
:10317000CF90BF90AF900C946306DF91CF911F91D9
:103180000F91FF90EF90DF90CF90BF90AF90089598
:103190001ABA8AB380638ABB8BB38FEF8BBB87BBB2
:1031A00097B397BB98B3906B98BB84BB85BB81BB2F
:1031B00082BB08950F931F93CF93DF9300D01F928C
:1031C000CDB7DEB71F928F9381ED90E09F938F93E1
:1031D0008E010F5F1F4F1F930F930E94C82E9801FF
:1031E00040E050E068E78AE00E946306C8010E9460
:1031F000A3242FEF8FE995E0215080409040E1F724
:1032000000C000000F900F900F900F900F900F9044
:103210000F900F900F90DF91CF911F910F91089514
:103220000F930E94D121811103C081E00E94DA181E
:1032300000E028E433E240EA52E26BE472E289E221
:1032400091E20E94CE039093930780939207892B7B
:10325000A1F40FEF28E433E240EA52E26BE472E2B9
:1032600089E291E20E94CE039093930780939207A4
:10327000892B19F482E00E94DA18809192079091CC
:1032800093070E94520D9093D9068093D806892BFC
:1032900019F483E00E94DA1845E657E067ED70E024
:1032A0008091D8069091D9060E94A31365E677E035
:1032B0008091D8069091D9060E94A11290939B0705
:1032C00080939A07892B21F484E00F910C94DA18EB
:1032D0000F910895EF92FF920F931F93CF93DF9377
:1032E000CDB7DEB7AB970FB6F894DEBF0FBECDBF3C
:1032F0000091D8061091D906BE016F5F7F4F809173
:103300009A0790919B070E949316882341F0BE0173
:103310006F5F7F4FC8010E94D20E8C0102C000E097
:1033200010E0109391070093900701151105A1F586
:1033300085E00E94DA184DEA57E062EA70E0809179
:103340009A0790919B070E942D14811104C086E07A
:103350000E94DA1802C00E949E23E090D806F090E6
:10336000D906BE016F5F7F4F80919A0790919B07AE
:103370000E949316882339F0BE016F5F7F4FC7010B
:103380000E94D20E8C011093910700939007012B9D
:1033900019F487E00E94DA188091900790919107C4
:1033A000009709F43FC019821A821B821C8242E0F6
:1033B000BE016F5F7F4F0E94471281110AC088E0F3
:1033C0000E94DA1880919007909191070E94020F55
:1033D00029C089819A81AB81BC81892B8A2B8B2B57
:1033E000F9F406E710E0F80101900020E9F7AF01D9
:1033F0004150510946575040B80180919007909133
:1034000091070E941310F80101900020E9F731970D
:10341000E657F0408E179F0719F089E00E94DA18EE
:103420000E949E23AB960FB6F894DEBF0FBECDBFB1
:10343000DF91CF911F910F91FF90EF900895FF9230
:103440000F931F93CF93DF93F090A7070091A607E8
:103450001091A507D091A407C091AB07B091AA071E
:10346000A091A907F091A807E091A3077091A20786
:103470006091A1075091A00740919F0730919E074E
:1034800020919D0790919C07813019F5FF920F9331
:103490001F93DF93CF93BF93AF93FF93EF937F93EC
:1034A0006F935F934F933F932F939F9389ED90E09A
:1034B0009F938F9388E397E09F938F930E94C82EEA
:1034C0008DB79EB744960FB6F8949EBF0FBE8DBFC2
:1034D0002CC0809109071F928F93809196078F933C
:1034E000809195078F93FF920F931F93DF93CF9354
:1034F000BF93AF93FF93EF937F936F935F934F933C
:103500003F932F939F9386EF90E09F938F9388E351
:1035100097E09F938F930E94C82EEDB7FEB77896E1
:103520000FB6F894FEBF0FBEEDBFC8E3D7E0FE01B3
:1035300001900020E9F7AF0141505109485357402D
:10354000BE0180919007909191070E941310FE0197
:1035500001900020E9F73197E853F7408E179F0755
:1035600019F08AE00E94DA18DF91CF911F910F9134
:10357000FF900C949E23EF92FF920F931F93CF9393
:10358000DF93C3E0D0E000E010E083E0E82EF12C10
:1035900087E00E94C303800F911FB7010E94B22CE5
:1035A0008B0121972097A1F7095B110981E0053173
:1035B000110508F480E0DF91CF911F910F91FF90EA
:1035C000EF9008950E949E2380919007909191071B
:1035D0000E94020F8091D8069091D9060E94CC0ECD
:1035E00080919207909193070C94590420E030E069
:1035F00090E02817390764F44FEF5FE36BE0415028
:1036000050406040E1F700C000002F5F3F4FF1CF16
:103610000895FF920F931F93CF93DF93F82EC82F37
:10362000D0E0CE010E940307BE018CE997E00E9422
:1036300011084091A8075091A9076091AA077091BD
:10364000AB0700919C0710919D0720919E07309138
:103650009F0781E0F8122CC04093F5065093F606C0
:103660006093F7067093F8068091A0079091A107E8
:10367000A091A207B091A3078093FD069093FE0648
:10368000A093FF06B0930007009301071093020771
:10369000209303073093040786E00E94C3036AE087
:1036A00070E00E949E2C709396076093950710C05F
:1036B0000093050710930607209307073093080728
:1036C0004093F9065093FA066093FB067093FC064C
:1036D000BE018AE097E00E9450098823B1F082E0A1
:1036E0000E94F70529E131E040E050E060E487E026
:1036F0000E9463068AE00E94F61A80E0DF91CF9173
:103700001F910F91FF900C94F705DF91CF911F91BE
:103710000F91FF9008954F925F926F927F92AF92B8
:10372000BF92CF92DF92EF92FF920F931F93CF93AE
:10373000DF93CDB7DEB728970FB6F894DEBF0FBE84
:10374000CDBF0E943E292091DA063091DB064091E0
:10375000DC065091DD060E94202B87FD7DC0809104
:10376000DE069091DF06A091E006B091E106898324
:103770009A83AB83BC839C01AD01C801B7010E9451
:10378000202B18160CF068C08091E2069091E30699
:10379000A091E406B091E5068D839E83AF83B88740
:1037A0009C01AD01C601B5010E94202B18160CF03A
:1037B00053C02091EE063091EF064091F0065091F3
:1037C000F106698D7A8D8B8D9C8D0E943E299B011F
:1037D000AC01C601B5010E94202B87FD3DC0809140
:1037E0009D00882341F08130D1F5C398809309076B
:1037F00010929D0034C02091E6063091E70640917A
:10380000E8065091E9066D817E818F8198850E943E
:103810003F299B01AC01C601B5010E94202B18165F
:10382000F4F42091EA063091EB064091EC065091B9
:10383000ED0669817A818B819C810E943F299B01E1
:10384000AC01C801B7010E94202B181644F4C3989C
:1038500081E08093090703C0C39A10920907289654
:103860000FB6F894DEBF0FBECDBFDF91CF911F9191
:103870000F91FF90EF90DF90CF90BF90AF907F902F
:103880006F905F904F9008958DEC9CECACE4BFE39B
:103890008093DA069093DB06A093DC06B093DD06F6
:1038A00080E090E0A0EAB2E48093DE069093DF0629
:1038B000A093E006B093E10680E090E0A0E6B1E4DA
:1038C0008093E2069093E306A093E406B093E506A6
:1038D00080E090E0A0E0BFE38093E6069093E706E7
:1038E000A093E806B093E90680E090E0A0E8BFE38B
:1038F0008093EA069093EB06A093EC06B093ED0656
:103900008093EE069093EF06A093F006B093F10635
:1039100084E190E09093F3068093F20608958EB5CB
:1039200084608EBD89B7846089BF0895CF92DF928D
:10393000EF92FF92CF93DF93CDB7DEB764970FB6C8
:10394000F894DEBF0FBECDBF6B017C010E949E23A9
:1039500028E231E041E050E065E782E00E94630642
:1039600086E790E00E94A3248091900790919107B0
:10397000009721F48BE00E94DA18B7C0198A1A8ADE
:103980001B8A1C8A41E0BE016F5E7F4F0E94471276
:10399000811103C08CE00E94DA1889899A89AB8969
:1039A000BC89C114D104E104F10441F00197A109DB
:1039B000B1098D879E87AF87B88B04C01D861E8690
:1039C0001F86188A40E0BE01635F7F4F8091900799
:1039D000909191070E944712811103C08FE00E94CD
:1039E000DA18C114D104E104F10409F45AC02FEF2C
:1039F000C21AD20AE20AF20A41E050E0BE016F5F49
:103A00007F4F80919007909191070E94080F20911D
:103A10009007309191074D855E856F8578891816DE
:103A2000190614F5C114D104E104F104E9F0898107
:103A30008A3029F481E0C81AD108E108F108415020
:103A40005109610971094D875E876F87788B40E066
:103A5000BE01635F7F4FC9010E9447128111CCCF25
:103A60008EE00E94DA18C8CF4F5F5F4F6F4F7F4FD5
:103A700049875A876B877C8740E0BE01675F7F4F2D
:103A8000C9010E94471281110CC08DE00E94DA1812
:103A900008C0F70181917F010E949F24EC14FD046E
:103AA000C1F748E050E0BE016F5F7F4F8091900703
:103AB000909191070E94080F1816190644F49E0170
:103AC0002F5F3F4F79016901C80ED91EE2CF88E30D
:103AD00091E00E94A32440E0BE016F5E7F4F809181
:103AE0009007909191070E9447122EE331E041E048
:103AF00050E065E782E00E94630664960FB6F89492
:103B0000DEBF0FBECDBFDF91CF91FF90EF90DF9072
:103B1000CF9008950F931F93CF93DF9300D000D0E1
:103B2000CDB7DEB78AE390E09A838983BE016F5FE9
:103B30007F4F88E397E00E940C2EBE016F5F7F4F9E
:103B400080E090E00E940C2E0E94252D8C011F9396
:103B50008F937F936F932EE431E03F932F9328E36D
:103B600037E03F932F936B837C830E94C82E0FB660
:103B7000F894DEBF0FBECDBF6B817C81802F912F6B
:103B80000F900F900F900F90DF91CF911F910F9199
:103B900008950F931F93CF93DF9344E050E065E5C2
:103BA00071E088E397E00E943C2E892B19F48AE5A6
:103BB00091E059C24AE050E060E671E088E397E0A6
:103BC0000E943C2E892B69F48BE691E00E94A3248D
:103BD0008BB390E289278BBBDF91CF911F910F911F
:103BE000089549E050E06BE771E088E397E00E94B8
:103BF0003C2E892B71F50E948A1D0E943C2ACB0124
:103C0000AA2797FDA095BA2F8093C7049093C80464
:103C1000A093C904B093CA0485E891E00E94A3244C
:103C200086E991E00E94A32488E397E00E94A32400
:103C30008AE00E949F246091C7047091C80480911B
:103C4000C9049091CA04DF91CF911F910F910C94F8
:103C5000961C4AE050E06EE971E088E397E00E942C
:103C60003C2E892B09F0D8C08091DD068F9380917E
:103C7000DC068F938091DB068F938091DA068F9319
:103C80000EE411E01F930F93C8E3D7E0DF93CF93C7
:103C90000E94C82E89EA91E00E94A324CE010E94CE
:103CA000A3248AE00E949F248091E1068F93809153
:103CB000E0068F938091DF068F938091DE068F93CD
:103CC0001F930F93DF93CF930E94C82E80ED91E056
:103CD0000E94A324CE010E94A3248AE00E949F2474
:103CE0008091E5068F938091E4068F938091E3069F
:103CF0008F938091E2068F931F930F93DF93CF935F
:103D00000E94C82E83EF91E00E94A324CE010E945E
:103D1000A3248AE00E949F248091E9068F938091DA
:103D2000E8068F938091E7068F938091E6068F9344
:103D30001F930F93DF93CF930E94C82E8DB79EB72A
:103D400080960FB6F8949EBF0FBE8DBF80E192E0C3
:103D50000E94A324CE010E94A3248AE00E949F24F3
:103D60008091F1068F938091F0068F938091EF06FA
:103D70008F938091EE068F931F930F93DF93CF93D2
:103D80000E94C82E89E192E00E94A324CE010E94E5
:103D9000A3248AE00E949F248091ED068F93809156
:103DA000EC068F938091EB068F938091EA068F93B8
:103DB0001F930F93DF93CF930E94C82E83E292E06C
:103DC0000E94A324CE010E94A3248AE00E949F2483
:103DD0002091F2063091F3064EE1429FC001439FCD
:103DE000900D11249F938F9384ED90E09F938F9378
:103DF000DF93CF930E94C82E8DE292E00E94A3240D
:103E0000CE010E94A3248DB79EB746960FB6F894B4
:103E10009EBF0FBE8DBF1CC04BE050E06CE372E054
:103E200088E397E00E943C2E892BC9F40E948A1DEA
:103E30006093DA067093DB068093DC069093DD06D0
:103E400088E492E00E94A32488E397E00E94A324E0
:103E50008AE0DF91CF911F910F910C949F244AE04B
:103E600050E067E572E088E397E00E943C2E892BE2
:103E700069F40E948A1D6093DE067093DF068093CA
:103E8000E0069093E10682E692E0DCCF49E050E064
:103E900061E772E088E397E00E943C2E892B69F489
:103EA0000E948A1D6093E2067093E3068093E40605
:103EB0009093E5068BE792E0C5CF4BE050E069E8D0
:103EC00072E088E397E00E943C2E892B69F40E94FF
:103ED0008A1D6093E6067093E7068093E806909348
:103EE000E90685E992E0AECF4BE050E065EA72E08A
:103EF00088E397E00E943C2E892B69F40E948A1D7A
:103F00006093EE067093EF068093F0069093F106AF
:103F100082EB92E097CF4CE050E063EC72E088E3F4
:103F200097E00E943C2E892B69F40E948A1D6093C1
:103F3000EA067093EB068093EC069093ED0680ED15
:103F400092E080CF4AE050E061EE72E088E397E0D3
:103F50000E943C2E892B09F04AC00E948A1D0E94B3
:103F60003C2A882777FD8095982F0E946F2A20E0B1
:103F700030E040E05FE30E943F290E94412ACB01EC
:103F80006EE170E00E949E2C6115710529F070931E
:103F9000F3066093F20606C081E090E09093F3068A
:103FA0008093F2062091F2063091F3064EE1429F93
:103FB000C001439F900D11249F938F9384ED90E057
:103FC0009F938F9388E397E09F938F930E94C82ECF
:103FD0008CEE92E00E94A32488E397E00E94A32441
:103FE0000F900F900F900F900F900F9031CF4DE0EA
:103FF00050E062E073E088E397E00E943C2E892B5A
:1040000081F50E948A1D0E943C2A882777FD8095B1
:10401000982F0E946F2A20E030E040E05FE30E948A
:104020003F290E943C2A6130710571F481E0809340
:10403000D0046091A0008091D00470E090E00E94D4
:10404000DF0480E193E002CF1092D0046091A000E1
:104050008091D00470E090E00E94DF0482E293E05F
:10406000F5CE82E393E0DF91CF911F910F910C94F5
:10407000A324EF92FF920F931F93CF93DF93C3E09C
:10408000D0E000E010E033E0E32EF12C87E00E9466
:10409000C303800F911FB7010E94B22C8B0121979F
:1040A0002097A1F70B59110981E00531110508F09E
:1040B00080E0DF91CF911F910F91FF90EF900895D5
:1040C000CF93DF93C62FD42F8130D9F40E94BB1A2F
:1040D000811117C028EE33E040E050E064E50E9413
:1040E00063062DEF33E040E050E065E484E10E9498
:1040F00063062DE034E040E050E06BE38CE00E948A
:1041000063060E943920813089F4D11105C06C2FDB
:1041100070E081E090E006C0D13041F46C2F70E097
:1041200080E090E0DF91CF910C94DF04DF91CF919C
:1041300008951F920F920FB60F9211248F93F89447
:104140008091CC048F5F8093CC0481E08093CE0477
:1041500078948F910F900FBE0F901F9018951F921B
:104160000F920FB60F9211242F933F934F935F93AB
:104170006F937F938F939F93AF93BF93EF93FF932F
:10418000F8946DE270E08BE097E00E94B32481E048
:104190008093CD047894FF91EF91BF91AF919F915F
:1041A0008F917F916F915F914F913F912F910F90E0
:1041B0000FBE0F901F9018958FB9779BFECF779801
:1041C00008958FEF8FB9779BFECF77988FB10895C1
:1041D0001F93CF93DF9300D000D0CDB7DEB7182F59
:1041E0004C835B836A8379830E94E120812F806402
:1041F0000E94DC207981872F0E94DC206A81862F33
:104200000E94DC205B81852F0E94DC204C81842F62
:104210000E94DC20112321F0183039F487E801C016
:1042200085E90E94DC201AE004C08FEFFACF11501C
:1042300021F00E94E1208F3FD1F30F900F900F905B
:104240000F90DF91CF911F91089581E0089580E054
:1042500008952F923F924F925F926F927F928F922A
:104260009F92AF92BF92CF92DF92EF92FF920F9305
:104270001F93CF93DF9300D000D0CDB7DEB74B01B3
:104280005C018A017901212C82E0382EE114F104CD
:1042900009F46FC0640181E0D822240135014C1873
:1042A0005D0861087108F101EC19FD09FC83EB83DD
:1042B000EE16FF0610F4FC82EB828091D2049091FE
:1042C000D304A091D404B091D504481659066A06C7
:1042D0007B06D1F1C498B301A20181E10E94E820DC
:1042E000882319F0C49A80E045C00E94E1208E3FE7
:1042F000E1F726ED34E029833A830E94E120298109
:104300003A81F90181939F01F6E0263D3F0799F735
:104310004092D2045092D3046092D4047092D50497
:10432000B6016A527B4F4B815C81C8010E94112EFD
:104330008B819C81080F191F0E94E1200E94E120BF
:10434000C49A0E94E1200CC0B6016A527B4F4B8197
:104350005C81C8010E94112EEB81FC810E0F1F1F92
:104360008B819C81E81AF90A880E991EA11CB11C48
:104370008DCF81E00F900F900F900F90DF91CF9134
:104380001F910F91FF90EF90DF90CF90BF90AF9073
:104390009F908F907F906F905F904F903F902F9065
:1043A00008951F93CF93DF93BD9ABF9ABC9ABE988E
:1043B000C49A83E58DB970981092D1041AE00E94D6
:1043C000E1201150E1F7C498C0E0D2E040E050E0B5
:1043D000BA0180E00E94E820813021F021972097E7
:1043E000A9F72CC040E050E0BA0187E30E94E82022
:1043F00040E050E0BA0189E20E94E82082FD05C059
:104400008091D10481608093D104C0E0D0E8809194
:10441000D104837040E050E0BA0141F087E30E948C
:10442000E82040E050E0BA0189E201C081E00E944A
:10443000E82080FF05C02197209749F7C49A26C03D
:1044400040E052E060E070E080E10E94E820C49A21
:1044500081111BC08DB18C7F8DB9709A8FEF9FEF4A
:10446000DC018093D2049093D304A093D404B0933E
:10447000D50420E032E046ED54E060E070E0CB018E
:104480000E94292111E0811101C010E0812FDF91EC
:10449000CF911F9108952F923F924F925F926F920A
:1044A0007F928F929F92AF92BF92CF92DF92EF92C4
:1044B000FF920F931F93CF93DF932B013C015A017F
:1044C000E901470116014115510511F480E025C0AD
:1044D0002097E1F302171307C8F3E114F104B1F3D5
:1044E0006901E12CF12C9E01A501C301B2010E94DA
:1044F0002921882359F39101B301A201C501F401D7
:104500000995882349F04C0C5D1C6E1C7F1C0C1B0C
:104510001D0B0C171D0738F781E0DF91CF911F911C
:104520000F91FF90EF90DF90CF90BF90AF909F9052
:104530008F907F906F905F904F903F902F90089555
:104540002F923F924F925F926F927F928F929F92A3
:10455000AF92BF92CF92DF92EF92FF920F931F9391
:10456000CF93DF936B017C015A018901212C22E05A
:10457000322E0115110509F475C0460181E098221B
:10458000260137014818590861087108E101C81966
:10459000D9090C171D0708F4E8018091D204909105
:1045A000D304A091D404B091D504481659066A06E4
:1045B0007B06D9F08114910469F4C115E2E0DE07AD
:1045C00049F44092D2045092D3046092D404709281
:1045D000D5040BC020E032E046ED54E0C301B20147
:1045E0000E9429218111EDCF3FC0F6EDAF16F4E016
:1045F000BF0639F0AE01B501C4018A529B4F0E943B
:10460000112EC498B301A20188E10E94E8208823FA
:1046100011F0C49A29C08EEF0E94DC2096ED892EFD
:1046200094E0992EF40181914F010E94DC20F6ED77
:104630008F16F6E09F06B1F78FEF0E94DC208FEF18
:104640000E94DC200E94E1208F3FE1F70E94E120E0
:10465000C49AAC0EBD1ECC0EDD1EE11CF11C0C1B61
:104660001D0B87CF81E001C080E0DF91CF911F91CA
:104670000F91FF90EF90DF90CF90BF90AF909F9001
:104680008F907F906F905F904F903F902F90089504
:104690005F926F927F928F929F92AF92BF92CF92D2
:1046A000DF92EF92FF920F931F93CF93DF934B0113
:1046B0005C016A01E90137014115510511F480E0FF
:1046C0002DC001151105D9F3552453942097E9F015
:1046D000512C1BC02097E1F09301B501A401C60144
:1046E000F80109957C01009799F0552099F0970100
:1046F000A601C501B4010E94A022882301F38E0CFB
:104700009F1CA11CB11CCE19DF09552019F3E4CF61
:1047100081E004C0C817D90750F7D1CFDF91CF91FE
:104720001F910F91FF90EF90DF90CF90BF90AF90CF
:104730009F908F907F906F905F90089581E0089593
:104740009F92AF92BF92CF92DF92EF92FF920F9320
:104750001F93CF93DF93EC01009709F4DAC089E14E
:10476000FE0111928A95E9F7C49840E050E0BA0141
:104770008AE00E94E82081115DC00E94E1208E3F06
:10478000E1F79C2E0C2F1D2F70E6A72EB12C0E9456
:10479000E120282F402F491950E04F305105B8F53E
:1047A000FA01E65DFF4F0C941F2D888330C0F8019D
:1047B00080832DC0F80181832AC08A8728C0C82E33
:1047C000D12CE12CF12C0A2C04C0CC0CDD1CEE1CED
:1047D000FF1C0A94D2F74B855C856D857E854C293C
:1047E0005D296E297F294B875C876D877E870FC087
:1047F000C82EC29460EFC622CF8609C0982F92952A
:104800009F708F85892B8F87822F8F70888B0F5F8A
:104810001F4FF8E0AF1AB10820EDA2162FEFB20635
:1048200009F0B5CF40E050E0BA0189E00E94E820ED
:10483000882311F0C49A6DC00E94E1208E3FE1F7F9
:1048400010E0C12CD12C760100E0A12CBB24B39444
:104850000E94E1201E3071F486FDBD8A85FDBE8A6E
:1048600084FDBF8A8C7090E0959587959595879586
:10487000888F48C0173079F178F4153049F1163037
:1048800009F040C08370C82ED12CE12CF12CFE2CF5
:10489000ED2CDC2CCC2436C0193089F128F11A30EB
:1048A00089F5881F8827881F082B8A2D90E0800FA4
:1048B000911D0296A701960104C0220F331F441FC9
:1048C000551F8A95D2F7298B3A8B4B8B5C8B1AC07C
:1048D0008F70A82E17C0C82A32E0CC0CDD1CEE1C4D
:1048E000FF1C3A95D1F70EC0829586958695837008
:1048F000C82A3FEFC31AD30AE30AF30A03C0082FFA
:104900000370000F1F5F123109F0A2CFC49A81E03B
:1049100001C080E0DF91CF911F910F91FF90EF9048
:10492000DF90CF90BF90AF909F9008958AB1886933
:104930008AB980B5866880BD10BC19B808955D9BA2
:10494000FECF8CB90895CF93DF93EC018991882332
:1049500019F00E949F24FACFDF91CF9108955F9BB9
:10496000FECF8CB10895EF92FF920F931F93CF93D8
:10497000DF937C018B010E94AF24282F30E0E701F8
:10498000015011092A30310541F41882DF91CF918D
:104990001F910F91FF90EF900895CE018E199F09FE
:1049A0008017910794F729930E94AF24282F30E0B5
:1049B000E9CF0E94C8180E9496240E94B80381E0A3
:1049C00090E00E94C50682E090E00E94C5067894BF
:1049D0000E948F1C6091A0008091D00470E090E054
:1049E0000E94DF0482E00E94F7050E94101982EA0B
:1049F00090E00E946A190E94441C10929407C1E042
:104A00008091A100811163C00E94E21A82E00E949D
:104A1000F7052FE134E040E050E060E484E10E94DB
:104A2000630685E00E94F61AEBCFA0900107B090D4
:104A30000207C0900307D0900407E090FD06F090B5
:104A4000FE060091FF06109100072091F9063091B3
:104A5000FA064091FB065091FC066091F5067091B4
:104A6000F6068091F7069091F806E0910807EF931B
:104A7000E0910707EF93E0910607EF93E0910507B8
:104A8000EF930E948B1B1092CB040F900F900F900E
:104A90000F908091CE04813061F420919F0040916D
:104AA000D0046091A0008091A1000E94602010922B
:104AB000CE048091CD04813051F46BE077E088E33F
:104AC00097E00E94352E0E94C91D1092CD0480915E
:104AD000A100882309F494CF8091CC04823041F462
:104AE0002FE234E04AE050E068E088E40E94630688
:104AF0008091CC04853029F522E334E04AE050E08F
:104B000068E088E40E946306C0939E0080919E0046
:104B1000833080F40E94091BC093CF048091CF049E
:104B20000E94AF161092CF0480919E008F5F8093F9
:104B30009E00ECCF1092CC048091CB048F5F8093C9
:104B4000CB042091CB0430E08091F2069091F306E3
:104B50002817390709F09DCFC0939E0080919E00D1
:104B6000833008F062CF0E94091B8091CF040E941D
:104B7000AF1680919E000E941F1A80919E008F5F49
:104B800080939E00EBCFA3E1B0E0E9ECF5E20C945A
:104B9000E82C7C011B016A01FC01178216828381CB
:104BA00081FF66C3BE016F5F7F4F4B01F7019381A9
:104BB000F10193FD859193FF81911F01882309F4F1
:104BC00053C3853239F493FD859193FF81911F0181
:104BD000853239F4B70190E00E94962E56016501A6
:104BE000E5CF10E0512C20E02032A0F48B3269F0A8
:104BF00030F4803259F0833269F420612CC08D3258
:104C000039F0803339F4216026C02260246023C04B
:104C1000286021C027FD27C030ED380F3A3078F4E6
:104C200026FF06C0FAE01F9F300D1124132F13C07A
:104C30006AE0569E300D1124532E20620CC08E3235
:104C400021F426FD11C3206406C08C3611F42068BF
:104C500002C0883641F4F10193FD859193FF819163
:104C60001F018111C1CF9BEB980F933018F4206185
:104C7000805E06C09BE9980F933008F0AAC12F7E92
:104C800026FF16E02F73722E853621F4F22FF06482
:104C90007F2E08C0863621F4622F6068762E02C00F
:104CA0001111115077FE07C01C3348F4442443947B
:104CB000410E27E00BC0183030F4212F06C027E04A
:104CC0004CE3442E03C027E017E0412C560174E06A
:104CD000A70EB11CF6016081718182819381042D40
:104CE000A4010E94292D6C01098100FF02C003FF6D
:104CF00006C071FC07C072FC08C0612C08C03DE210
:104D0000632E05C02BE2622E02C090E2692E802F36
:104D10008C7099F1662011F084E001C083E0851564
:104D200010F0512C0BC0581A73FC08C0B70180E278
:104D300090E00E94962E5A94C9F7F3CF662029F08E
:104D4000B701862D90E00E94962E03FD03C008EF68
:104D500015E002C004EF15E0F72DF0717F2EF80189
:104D60008491882309F476C271108052B70190E0D3
:104D70000E94962E0F5F1F4FF2CF77FE0FC04C0C94
:104D800004FF04C08A81813309F44A94141474F531
:104D9000F8E0F41578F588E0482E2CC076FC2AC09F
:104DA000812F90E08C159D059CF06CEFC6166FEF7F
:104DB000D60674F0772D7068772E0AC0E2E0F0E036
:104DC000EC0FFD1FE10FF11D8081803319F41150AC
:104DD0001111F4CF77FE0EC044244394410E812F6D
:104DE00090E0C816D9062CF41C1904C0442443943E
:104DF00001C010E077FE07C01C141D043CF49601AE
:104E00002F5F3F4F05C025E030E002C021E030E0D9
:104E1000662011F02F5F3F4F112331F0412F50E0FA
:104E20004F5F5F4F240F351F452D50E02417350786
:104E300014F4521A01C0512C872D897049F4552061
:104E400039F0B70180E290E00E94962E5A94F7CF95
:104E5000662029F0B701862D90E00E94962E73FC03
:104E600009C0552039F0B70180E390E00E94962EEA
:104E70005A94F7CF77FE5FC09C2D8D2DD7FE02C0D0
:104E800090E080E0692E782E40E050E0C601841961
:104E900091099D878C87960126193709280D391DA0
:104EA000812F90E0EE27FF27E81BF90BFF87EE87A5
:104EB000FFEF6F167F0669F4B7018EE290E02B8B4F
:104EC0003A8B488B598B0E94962E598948893A898A
:104ED0002B89C614D70454F06C857D85661577053B
:104EE0002CF4F901E40FF51F818101C080E371E02A
:104EF000671A71084F5F5F4FEE85FF856E167F065C
:104F00006CF0B70190E02B8B3A8B488B598B0E9449
:104F1000962E2B893A8948895989CACF6C147D0409
:104F200039F49A81963318F4953311F404FF81E330
:104F3000B70190E04BC08A81813309F00F7EB70141
:104F400090E00E94962E111105C074FE18C085E4F1
:104F500090E017C0B7018EE290E00E94962E82E0AA
:104F600066246394680EF401E80FF11D8081B70197
:104F700090E00E94962E115041F3862DF1CF85E6E8
:104F800090E0B7010E94962ED7FC05C0C114D10451
:104F900039F404FF05C0D194C194D1088DE201C059
:104FA0008BE2B70190E00E94962E80E36AE0C6167D
:104FB000D1042CF08F5FFAE0CF1AD108F7CFB701F8
:104FC00090E00E94962EB701C601C0960E94962ED0
:104FD00041C1833631F0833779F0833509F058C009
:104FE00021C0560172E0A70EB11CF60180818983B1
:104FF00001E010E0640114C05601F2E0AF0EB11CF4
:10500000F601C080D18026FF03C0612F70E002C08E
:105010006FEF7FEFC6012B8B0E94592E8C012B89DD
:105020002F7715C05601F2E0AF0EB11CF601C0801B
:10503000D18026FF03C0612F70E002C06FEF7FEFC9
:10504000C6012B8B0E94012E8C012B892068722EA9
:1050500023FD1AC0852D90E008171907A8F4B701A1
:1050600080E290E00E94962E5A94F4CFF60177FCED
:10507000859177FE81916F01B70190E00E94962E95
:1050800051105A94015011090115110579F7E2C028
:10509000843611F0893651F5560127FF09C0F4E036
:1050A000AF0EB11CF60160817181828193810AC0CB
:1050B000F2E0AF0EB11CF60160817181882777FDA7
:1050C0008095982F022F0F7697FF08C090958095B6
:1050D000709561957F4F8F4F9F4F00682AE030E0B9
:1050E000A4010E94EA2EC82EC8183EC0022F8537A0
:1050F00021F40F7E2AE030E01DC0097F8F3691F049
:1051000018F4883559F0B0C0803719F0883711F09D
:10511000ABC0006104FF09C0046007C024FF08C0E1
:10512000066006C028E030E005C020E130E002C0A3
:1051300020E132E0560107FF09C0F4E0AF0EB11CD8
:10514000F601608171818281938108C0F2E0AF0E27
:10515000B11CF6016081718180E090E0A4010E94A1
:10516000EA2EC82EC8180F7706FF0BC0202F2E7FFF
:10517000C11650F404FF0AC002FD08C0202F2E7E85
:1051800005C0DC2C202F03C0DC2C01C0D12E24FF55
:105190000DC0FE01EC0DF11D8081803311F4297EDC
:1051A00009C022FF06C0D394D39404C0822F86780E
:1051B00009F0D39423FD13C020FF06C01C2DD51485
:1051C00018F4150D1D19D52CD51468F4B70180E21B
:1051D00090E02B8B0E94962ED3942B89F5CFD5147B
:1051E00010F45D1801C0512C24FF12C0B70180E3F8
:1051F00090E02B8B0E94962E2B8922FF17C021FF57
:1052000003C088E590E002C088E790E0B7010CC0D9
:10521000822F867859F021FD02C080E201C08BE226
:1052200027FD8DE2B70190E00E94962EC11638F45A
:10523000B70180E390E00E94962E1150F7CFCA94F8
:10524000F401EC0DF11D8081B70190E00E94962ED3
:10525000C110F5CF552009F4C2CCB70180E290E02F
:105260000E94962E5A94F6CFF7018681978102C04C
:105270008FEF9FEF6396E2E10C94042D5058BB270B
:10528000AA270ED0A3C194D130F099D120F031F4E7
:105290009F3F11F41EF464C10EF4E095E7FB5AC180
:1052A000E92FA5D180F3BA17620773078407950722
:1052B00018F071F49EF5BDC10EF4E0950B2EBA2FD7
:1052C000A02D0B01B90190010C01CA01A00111240C
:1052D000FF27591B99F0593F50F4503E68F11A16B8
:1052E000F040A22F232F342F4427585FF3CF469549
:1052F00037952795A795F0405395C9F77EF41F166B
:10530000BA0B620B730B840BBAF09150A1F0FF0F34
:10531000BB1F661F771F881FC2F70EC0BA0F621F20
:10532000731F841F48F4879577956795B795F79510
:105330009E3F08F0B3CF9395880F08F09927EE0FA2
:105340009795879508950CD041C139D140F030D15F
:1053500030F021F45F3F19F0FDC051116BC100C165
:1053600046D198F39923C9F35523B1F3951B550BF7
:10537000BB27AA2762177307840738F09F5F5F4F28
:10538000220F331F441FAA1FA9F333D00E2E3AF069
:10539000E0E830D091505040E695001CCAF729D083
:1053A000FE2F27D0660F771F881FBB1F26173707D2
:1053B0004807AB07B0E809F0BB0B802DBF01FF2702
:1053C00093585F4F2AF09E3F510568F0C3C032C129
:1053D0005F3FECF3983EDCF3869577956795B7953C
:1053E000F7959F5FC9F7880F911D9695879597F957
:1053F0000895E1E0660F771F881FBB1F62177307D0
:105400008407BA0720F0621B730B840BBA0BEE1FE4
:1054100088F7E095089519F40EF09CC00AC1A0C069
:10542000EED0C8F39638C0F707F80F92E8942BE354
:105430003AEA48EB5FE7D1D10F920F920F924DB746
:105440005EB70F9289D1E2E7F0E08DD04F915F9186
:10545000EF91FF91E595EE1FFF1F49F0FE57E068C1
:105460004427EE0F441FFA95E1F74195550BF5D00F
:105470000F9007FEE9C0089504D06894B111DAC016
:105480000895BDD088F09F5790F0B92F9927B75154
:10549000A0F0D1F0660F771F881F991F1AF0BA95F8
:1054A000C9F712C0B13081F0C4D0B1E00895C1C0D5
:1054B000672F782F8827B85F39F0B93FCCF38695EE
:1054C00077956795B395D9F73EF49095809570954B
:1054D00061957F4F8F4F9F4F0895E89409C097FBC8
:1054E0003EF490958095709561957F4F8F4F9F4FBB
:1054F0009923A9F0F92F96E9BB279395F6958795FF
:1055000077956795B795F111F8CFFAF4BB0F11F4C1
:1055100060FF1BC06F5F7F4F8F4F9F4F16C0882368
:1055200011F096E911C0772321F09EE8872F762F9E
:1055300005C0662371F096E8862F70E060E02AF0DF
:105540009A95660F771F881FDAF7880F96958795CB
:1055500097F9089597F99F6780E870E060E00895F3
:105560009FEF80EC0895DF93CF931F930F93FF92EB
:10557000EF92DF927B018C01689405C0DA2EEF0177
:105580002AD1FE01E894A591259135914591559137
:10559000AEF3EF0185DEFE019701A801DA9479F7F9
:1055A000DF90EF90FF900F911F91CF91DF910895C1
:1055B00000240A94161617061806090608950024F2
:1055C0000A9412161306140605060895092E03946C
:1055D000000C11F4882352F0BB0F40F4BF2B11F4E0
:1055E00060FF04C06F5F7F4F8F4F9F4F089557FD3F
:1055F0009058440F551F59F05F3F71F04795880F41
:1056000097FB991F61F09F3F79F0879508951216D7
:1056100013061406551FF2CF4695F1DF08C0161683
:1056200017061806991FF1CF869571056105089434
:105630000895E894BB2766277727CB0197F908954B
:1056400021D108F48FEF08959B01AC0160E070E078
:1056500080E89FE378CE7ECF39C1D1DFE8F399238C
:10566000D9F3940F511DBBF39150504094F059F071
:10567000882332F0660F771F881F91505040C1F782
:105680009E3F510544F7880F911D9695879597F990
:1056900008955F3FACF0983E9CF0BB2786957795C8
:1056A0006795B79508F4B1609395C1F7BB0F58F7AC
:1056B00011F460FFE8CF6F5F7F4F8F4F9F4FE3CFB5
:1056C000B9CF0AD029ED3BE54EED5EE378C00EF090
:1056D000FDC046CF68943ECF92DFC8F39923D1F343
:1056E000C6F3DF93CF931F930F93FF92C92FDD274C
:1056F00088232AF02197660F771F881FDAF720E0AA
:1057000030E040E85FEB9FE3883920F0803E30F0E6
:1057100021968F77B4DDEAE9F0E003C0B0DDE7EC75
:10572000F0E021DF8B01BE01EC01FB2E6F57710908
:105730007595771F880B990BD2DE28E132E741E39C
:105740005FE349D0AF2D9801AE01FF900F911F91FB
:10575000CF91DF91A5DD3ACFFA01DC01AA0FBB1F83
:105760009B01AC01BF5728F42227332744275078E8
:105770001FC0B75188F4AB2F002446953795279565
:10578000011CA395D2F3002069F0220F331F441FA0
:10579000B395DAF30DD072CD61307105A0E88A07B8
:1057A000B94630F49B01AC016627772788279078AB
:1057B000309621F0208331834283538308950BD0A8
:1057C00005CFF6DE28F0FBDE18F0952309F0C2CEF7
:1057D000C7CE11242FCF0BDFA0F3959FD1F3950FE8
:1057E00050E0551F629FF001729FBB27F00DB11D65
:1057F000639FAA27F00DB11DAA1F649F6627B00DF5
:10580000A11D661F829F2227B00DA11D621F739FDD
:10581000B00DA11D621F839FA00D611D221F749FEB
:105820003327A00D611D231F849F600D211D822F32
:10583000762F6A2F11249F5750408AF0E1F0882379
:105840004AF0EE0FFF1FBB1F661F771F881F915086
:105850005040A9F79E3F510570F07CCEEBCE5F3FE4
:10586000ECF3983EDCF3869577956795B795F795B9
:10587000E7959F5FC1F7FE2B880F911D9695879541
:1058800097F90895990F0008550FAA0BE0E8FEEF6D
:1058900016161706E807F907C0F012161306E407F4
:1058A000F50798F0621B730B840B950B39F40A26ED
:1058B00061F0232B242B252B21F408950A2609F4CB
:1058C000A140A6958FEF811D811D08959F3F31F066
:1058D000915020F4879577956795B795880F911D1E
:1058E0009695879597F90895A29FB001B39FC0013F
:1058F000A39F700D811D1124911DB29F700D811DFC
:105900001124911D08950E94742CA59F900DB49FA1
:10591000900DA49F800D911D11240895DB018F939C
:105920009F930E94832CBF91AF91A29F800D911DE8
:10593000A39F900DB29F900D11240895AA1BBB1B2D
:1059400051E107C0AA1FBB1FA617B70710F0A61B7F
:10595000B70B881F991F5A95A9F780959095BC01A0
:10596000CD01089597FB072E16F4009407D077FD1C
:1059700009D00E949E2C07FC05D03EF4909581959D
:105980009F4F0895709561957F4F0895A1E21A2E5B
:10599000AA1BBB1BFD010DC0AA1FBB1FEE1FFF1FD3
:1059A000A217B307E407F50720F0A21BB30BE40B23
:1059B000F50B661F771F881F991F1A9469F760956A
:1059C0007095809590959B01AC01BD01CF01089524
:1059D0002F923F924F925F926F927F928F929F92FF
:1059E000AF92BF92CF92DF92EF92FF920F931F93ED
:1059F000CF93DF93CDB7DEB7CA1BDB0B0FB6F8949E
:105A0000DEBF0FBECDBF09942A88398848885F84DD
:105A10006E847D848C849B84AA84B984C884DF804E
:105A2000EE80FD800C811B81AA81B981CE0FD11D32
:105A30000FB6F894DEBF0FBECDBFED010895EE0F97
:105A4000FF1F0590F491E02D0994662777270C94A9
:105A5000482F283008F027E03327DA01990F311D4D
:105A600087FD916000966105710539F432602E5F03
:105A70003D9330E32A95E1F708959F3F30F0803859
:105A80007105610509F03C5F3C5F3D93913008F082
:105A90008068911DDF93CF931F930F93FF92EF9236
:105AA000192F987F9695E92F96959695E90FFF27E0
:105AB000EA5AF94F99273327EE24FF24A701E7017B
:105AC00005900894079428F4360FE71EF81E491F26
:105AD000511D660F771F881F991F0694A1F7059027
